:020000021000EC
:10F000000C9490F80C94AFF80C94AFF80C94AFF803
:10F010000C94AFF80C94AFF80C94AFF80C94AFF8D4
:10F020000C94AFF80C94AFF80C94AFF80C94AFF8C4
:10F030000C94AFF80C94AFF80C94AFF80C94AFF8B4
:10F040000C94AFF80C94AFF80C94AFF80C94AFF8A4
:10F050000C94AFF80C94AFF80C94AFF80C94AFF894
:10F060000C94AFF80C94AFF80C94AFF80C94AFF884
:10F070000C94AFF80C94AFF80C94AFF80C94AFF874
:10F080000C94AFF80C94AFF80C94AFF80C94AFF864
:10F090000C94AFF80C94AFF80C94AFF80C94AFF854
:10F0A0000C94AFF80C94AFF80C94AFF80C94AFF844
:10F0B0000C94AFF80C94AFF80C94AFF80C94AFF834
:10F0C0000C94AFF80C94AFF80C94AFF80C94AFF824
:10F0D0000C94AFF80C94AFF80C94AFF80C94AFF814
:10F0E0000C94AFF80C94AFF80C94AFF80C94AFF804
:10F0F0000C94AFF80C94AFF80C94AFF80C94AFF8F4
:10F100000C94AFF80C94AFF80C94AFF80C94AFF8E3
:10F110000C94AFF80C94AFF80C94AFF80C94AFF8D3
:10F1200011241FBECFEFD1E4DEBFCDBF12E0A0E0BF
:10F13000B2E0E6E5F8EF01E00BBF02C007900D92E8
:10F14000A230B107D9F713E0A2E0B2E001C01D92EE
:10F15000AD30B107E1F70E94C8F90C9429FC0C947A
:10F1600000F890910202913019F0923041F0089528
:10F170009091C00095FFFCCF8093C60008959091B8
:10F18000C80095FFFCCF8093CE0008951F93982F61
:10F190009595959595959595905D182F1F701A30BA
:10F1A0004CF4105D892F0E94B1F8812F0E94B1F8B4
:10F1B0001F910895195A892F0E94B1F8812F0E943A
:10F1C000B1F81F910895EF92FF920F931F938091D2
:10F1D0000202813069F1823031F080E01F910F919D
:10F1E000FF90EF900895EE24FF2487018091C800DE
:10F1F00087FD17C00894E11CF11C011D111D81E45D
:10F20000E81682E4F8068FE0080780E0180770F33C
:10F21000E0910402F091050209958091C80087FFF2
:10F22000E9CF8091CE001F910F91FF90EF9008954C
:10F23000EE24FF2487018091C00087FD17C0089449
:10F24000E11CF11C011D111D81E4E81682E4F806A1
:10F250008FE0080780E0180770F3E0910402F09156
:10F26000050209958091C00087FFE9CF8091C60013
:10F270001F910F91FF90EF9008951F930E94E3F864
:10F28000182F0E94B1F8113634F410330CF01053DB
:10F29000812F1F9108951755812F1F9108951F9356
:10F2A0000E943DF9182F0E943DF91295107F810FA1
:10F2B0001F91089520910202882339F0213031F006
:10F2C000223061F081508823C9F708959091C000E1
:10F2D00097FFFCCF9091C6008150F5CF9091C80068
:10F2E00097FFFCCF9091CE008150EDCF1F93182F48
:10F2F0000E94E3F8803281F0809103028F5F809357
:10F300000302853011F01F910895E0910402F091FD
:10F31000050209951F91089584E10E94B1F8812F9B
:10F320000E94B1F880E10E94B1F8EDCF0E94E3F8AD
:10F33000803271F0809103028F5F809303028530E9
:10F3400009F00895E0910402F091050209950895ED
:10F3500084E10E94B1F880E10E94B1F8089540E98B
:10F3600051E08823A1F0889A28EE33E0FA01319722
:10F37000F1F721503040D1F7889828EE33E0FA01B8
:10F380003197F1F721503040D1F7815061F708955E
:10F390000F931F93CF93DF93000082E080930202CC
:10F3A00080E18093CC001092CD001092C80086E0DE
:10F3B0008093CA0088E18093C900809A80E00E940F
:10F3C000AFF90E94E3F88033B1F18133B9F18034B1
:10F3D00009F454C0813409F45AC0823409F469C074
:10F3E000853409F46CC0803531F1823521F18135E5
:10F3F00011F1853509F469C0863509F471C0843688
:10F4000009F47AC0843709F4DCC0853709F43CC1BB
:10F41000863709F44AC0809103028F5F809303020C
:10F42000853079F6E0910402F091050209950E9479
:10F43000E3F8803351F60E9496F9C3CF0E94E3F8B7
:10F44000803249F784E10E94B1F881E40E94B1F86A
:10F4500086E50E94B1F882E50E94B1F880E20E9440
:10F46000B1F889E40E94B1F883E50E94B1F880E523
:10F470000E94B1F880E10E94B1F8A3CF0E94E3F8A6
:10F480008638C8F20E94E3F80E9496F99ACF0E944B
:10F49000E3F8803809F421C1813809F41AC18238AF
:10F4A00009F41FC1883909F404C180E00E9476F98B
:10F4B00088CF84E10E945AF90E9496F982CF85E0B4
:10F4C0000E945AF90E9496F97CCF0E94E3F880933B
:10F4D00006020E94E3F8809307020E9496F971CF1A
:10F4E0000E94E3F8803309F4E8C083E00E945AF9EF
:10F4F00080E00E9476F965CF0E94E3F880930903CB
:10F500000E94E3F88093080380910C038E7F809320
:10F510000C030E94E3F8853409F4F9C080910803D4
:10F5200090910903009789F000E010E00E94E3F851
:10F53000F801E85FFD4F80830F5F1F4F8091080344
:10F54000909109030817190788F30E94E3F88032A5
:10F5500009F061CF80910C03817009F4EAC08091B9
:10F56000060290910702880F991F909307028093DB
:10F570000602209108033091090321153105D1F0CD
:10F5800000E010E0F801E85FFD4F60810E941BFC85
:10F590008091060290910702019690930702809352
:10F5A00006020F5F1F4F20910803309109030217D5
:10F5B000130740F384E10E94B1F880E10E94B1F8A2
:10F5C00000CF0E94E3F8809309030E94E3F8809340
:10F5D0000803809106029091070297FDA4C0209134
:10F5E0000C032D7F20930C03880F991F9093070223
:10F5F000809306020E94E3F8853409F48EC080915E
:10F600000C038E7F80930C030E94E3F8803209F094
:10F61000D8CE84E10E94B1F880910803909109034B
:10F62000009709F442C000E010E08091060290913A
:10F63000070216C0FC0184910E94B1F88091060275
:10F6400090910702019690930702809306020F5F44
:10F650001F4F20910803309109030217130728F563
:10F6600020910C03322F317009F03FC0227011F34A
:10F67000A0E0B0E080509040AF4FBF4FABBFFC0167
:10F6800087910E94B1F8DACF0E94E3F8803209F046
:10F69000C2CE84E10E94B1F88EE10E94B1F887EAFF
:10F6A0000E94B1F881E00E94B1F880E10E94B1F8B7
:10F6B00088CE83E00E9476F984CE0E94E3F80E940F
:10F6C000E3F8082F0E94E3F8002309F4A4C00130F6
:10F6D000D1F081E00E9476F974CE82E00E9476F942
:10F6E00070CE80E10E9476F96CCE0E9413FC0E94DD
:10F6F000B1F880910602909107020196909307025B
:10F7000080930602A4CF87EA0E9476F95ACE8091B0
:10F710000C03816080930C0301CF80910C03816006
:10F7200080930C0371CF20910C03226020930C0373
:10F730005BCF8091070287FD72C010920B0380E0BF
:10F740008BBF8091060290910702880F991F9093BA
:10F750000702809306028091080380FF09C0809110
:10F76000080390910903019690930903809308037D
:10F77000F894F999FECF1127E0910602F091070263
:10F78000C8E0D2E08091080390910903103091F411
:10F790000091570001700130D9F303E00093570046
:10F7A000E8950091570001700130D9F301E1009311
:10F7B0005700E895099019900091570001700130A9
:10F7C000D9F301E000935700E8951395103898F0AD
:10F7D00011270091570001700130D9F305E0009323
:10F7E0005700E8950091570001700130D9F301E10D
:10F7F00000935700E8953296029709F0C7CF103072
:10F8000011F00296E5CF112484E10E94B1F880E165
:10F810000E94B1F8D6CD8EE10E9476F9D2CD81E07A
:10F8200080930B038DCFF999FECF92BD81BDF89ADD
:10F83000992780B50895262FF999FECF1FBA92BD5A
:10F8400081BD20BD0FB6F894FA9AF99A0FBE0196C1
:06F850000895F894FFCFBB
:02F85600800030
:040000031000F000F9
:00000001FF
