:100000000C94FC000C9426010C9426010C942601FF
:100010000C9426010C9426010C9426010C942601C4
:100020000C9426010C9426010C9426010C942601B4
:100030000C944C010C9426010C9426010C9426017E
:100040000C9426010C9426010C9426010C94260194
:100050000C9426010C9426010C9426010C94B60BEA
:100060000C9426010C9426010C9426010C94260174
:100070000C9426010C9426010C9426010C94260164
:100080000C9426010C9426010C9426010C94260154
:100090000C9426010C9426010C9426010C94260144
:1000A0000C9426010C9426010C9426010C94260134
:1000B0000C9426010C9426010C9426010C94260124
:1000C0000C9426010C9426010C9426010C94260114
:1000D0000C9426010C9426010C9426010C94260104
:1000E0000C9426010C9426010C9426010C946804AF
:1000F0000C94CB040C9426010C9426010C947B05E3
:100100000C9426010C9426010C9426010C942601D3
:100110000C9426010C9426010C9426010C942601C3
:100120000F0F0F0F0F0E0E0E0D0D0C0C0B0A090802
:10013000070604020000000000240000002A002D31
:10014000003000330000000000000000000000004C
:10015000000000250000002B002E003100340000BC
:100160000000000000000000000000000000002669
:100170000029002C002F00320000000000000000C9
:10018000000000040405050505050502020202023F
:100190000206060606060602040404040402070416
:1001A000070707070607060505040840200408108E
:1001B000801080402008020102040810200401027F
:1001C000204080012010081002044001800102003C
:1001D00000000B00090A00070504030000000000EE
:1001E000000000000000000000000200000000000D
:1001F000000000000000A20811241FBECFEFD1E4D0
:10020000DEBFCDBF1BE0A0E0B2E0E8E7F3E200E034
:100210000BBF02C007900D92AC35B107D9F71DE0B6
:10022000ACE5BBE001C01D92AB30B107E1F711E0D6
:10023000C8EFD1E004C02297FE010E945B11C63FC7
:10024000D107C9F70E94700D0C94BA110C940000EC
:1002500083B7817F866083BF83B7816083BF8895C2
:1002600083B78E7F83BFE4E6F0E080818071808376
:10027000E5E6F0E08081867C8083089584B7877FFF
:1002800084BFE0E6F0E080818861808381E2808342
:1002900080818064808308951F920F920FB60F9221
:1002A0000BB60F9211242F933F934F935F936F934D
:1002B0007F938F939F93AF93BF93EF93FF9380911F
:1002C000E4039091E503892B81F481E090E0909321
:1002D000E5038093E40380915C0B90915D0B0196A4
:1002E00090935D0B80935C0B04C080E092E00E94D1
:1002F0001D09FF91EF91BF91AF919F918F917F91D8
:100300006F915F914F913F912F910F900BBE0F9086
:100310000FBE0F901F901895AF92BF92CF92DF92B1
:10032000EF92FF920F931F93DF93CF93CDB7DEB77A
:10033000E1970FB6F894DEBF0FBECDBF5C0189EF29
:100340009CE060E070E00E94AC08182F89EF9CE010
:1003500061E070E00E94AC08082FCE01019664E0D5
:1003600072E00E948C0E28E0E22EF12CEC0EFD1EB5
:10037000C70167E072E00E948C0ECE010F9667E025
:1003800072E00E948C0ECE014696612F40E10E94E1
:10039000D90ECE014D96602F40E10E94D90E10314A
:1003A00028F4C70168E072E00E940F0E003130F4BB
:1003B000CE010F9668E072E00E940F0E98E0C92E01
:1003C000D12CCC0EDD1EC601BE016A5E7F4F0E949D
:1003D0001F0E8FE0E82EF12CEC0EFD1EC701BE01B2
:1003E000635E7F4F0E941F0E8E01055D1F4FC80187
:1003F0006AE072E00E94A60EC801BE016F5F7F4FE7
:100400000E94550EB6010E94550EB7010E94550E6E
:100410006AE072E00E94390EBC01CE0184960E940F
:10042000220FC8010E94330F88A599A5089721F0D3
:100430008CE092E00E941D098E010C5D1F4F48A5C3
:1004400059A54F5F5F4FC801B50120E030E00E9421
:100450007F0DC8010E942D0FCE014D960E942D0FD9
:10046000CE0146960E942D0FCE010F960E942D0FB1
:10047000CE0108960E942D0FCE0101960E942D0FED
:10048000E1960FB6F894DEBF0FBECDBFCF91DF91DE
:100490001F910F91FF90EF90DF90CF90BF90AF90A2
:1004A00008950F931F93F8948BE192E00E941D0929
:1004B00009EF1CE0C80168E070E00E94AC08482F1A
:1004C0004F5FC80168E070E00E94A70878941F9110
:1004D0000F910895FF920F931F93CF93DF93082FEF
:1004E00010E0005F1F4F89EF9CE0B8010E94AC084C
:1004F000F82EF39489EF9CE0B8014F2D0E94A708D5
:1005000000E0C0E1D0E089EF9CE0BE010E94AC08B1
:1005100081110F5F0B3008F00AE02196CA31D10536
:1005200091F78091CF039091D0030E941D090A306A
:1005300039F48091D1039091D2030E941D0924C007
:10054000802F90E021E0F216E1F08C01000F111FE6
:100550000357174FF8018081918164E670E00E9493
:10056000110A0E946E0962E370E080E090E00E9450
:10057000300CF801808191816CE271E00E94110AD7
:1005800003C001970E946D0BDF91CF911F910F91D6
:10059000FF900895EF92FF920F931F93DF93CF93F5
:1005A000CDB7DEB7C158D0400FB6F894DEBF0FBE4E
:1005B000CDBF8091E4039091E503019709F018C144
:1005C0001092E5031092E403E0915C0BF0915D0B57
:1005D000EE0FFF1FEE55F54F8081918164E670E0CC
:1005E0000E94110A0E94280188E10FB6F8948093B6
:1005F0006000109260000FBE20915C0B30915D0B8B
:100600008091E6039091E703281739070CF4D6C0D0
:1006100010925D0B10925C0B88EF9CE062E00E94F0
:10062000A70768EE73E080E090E00E94300C00E0E5
:1006300010E068EC70E080E090E00E94300CC801AF
:1006400068E170E00E943211FC01EE0FFF1FEE55D1
:10065000F54F808191816AE070E00E94110A88EF75
:100660009CE00E947A07882309F4A2C088EF9CE0EE
:1006700065E00E94A30788EF9CE00E9463078C015D
:1006800082309105B9F0833091052CF481309105C9
:1006900009F077C008C08330910549F18430910595
:1006A00009F06FC05EC088EF9CE00E9463070E9463
:1006B0006A0299C0EE24FF248E010F5F1F4F88EF5E
:1006C0009CE00E947A07882309F47BC088EF9CE0B5
:1006D0000E946307F801EE0DFF1D80830894E11C62
:1006E000F11C80E8E816F10409F46BC0E8CF62E37E
:1006F00070E080E090E00E94300C88EF9CE061E0C8
:100700000E94A70788EF9CE06FE00E949D0788EF9A
:100710009CE00E94880700E010E089EF9CE0B801AF
:100720000E94AC08682F88EF9CE00E94EF070F5FE3
:100730001F4F0A31110589F788EF9CE00E94AB0733
:1007400088EF9CE064E10E949D0788EF9CE065E0F3
:100750000E94A7078091D3039091D4030E941D09A2
:100760002DC086E392E00E941D0988EF9CE00E9464
:100770006307482F89EF9CE064E070E00E94A708BF
:1007800032C08091D5039091D6030E941D09980133
:10079000205F3F4FC901880F991F880F991F820F53
:1007A000931F88519C4F68EC70E00E94110A1BC097
:1007B0000F5F1F4F0834110509F03BCF0E943E0127
:1007C00017C08E010F5F1F4FE00EF11EF701108260
:1007D00085E492E00E941D09C8010E941D098AE477
:1007E00092E00E941D0988EF9CE00E945E07E6CF20
:1007F000CF57DF4F0FB6F894DEBF0FBECDBFCF91FE
:10080000DF911F910F91FF90EF900895DF93CF93A9
:10081000CDB7DEB727970FB6F894DEBF0FBECDBFBA
:100820000E94630989EF9CE068E870E00E94AC08D0
:1008300090E09093E3038093E203892BD9F00E9428
:100840003D0A0E946E098091CD039091CE030E94D3
:100850001D0989ED93E00E948C0189ED93E00E94CF
:100860001D098091D7039091D8030E941D098AE049
:1008700090E008C085E29AE064E670E00E94110A08
:1008800082E090E09093E7038093E603DE01119607
:10089000EEEFFAE087E001900D928150E1F788EFEA
:1008A0009CE061E572E00E94FD0688EF9CE064E157
:1008B000AE014F5F5F4F0E9450080E943E01279695
:1008C0000FB6F894DEBF0FBECDBFCF91DF91089574
:1008D0001F920F920FB60F920BB60F9211242F9307
:1008E0003F934F935F936F937F938F939F93AF93B8
:1008F000BF93EF93FF935E9A86E00E948A068093EF
:10090000080DFF91EF91BF91AF919F918F917F91D2
:100910006F915F914F913F912F910F900BBE0F9070
:100920000FBE0F901F9018950E94CE06E9E3F1E0EC
:1009300080818260808380818D7F808308951F9372
:10094000DF93CF930F92CDB7DEB786E060E847E044
:100950000E949006182F8091630B9091640B609118
:10096000650BAE014F5F5F4F0E94AF068F776091BE
:10097000630B7091640B20E0112309F421E049819D
:100980000E94E1069093640B8093630B0F90CF91CC
:10099000DF911F9108951F920F920FB60F920BB621
:1009A0000F9211242F933F934F935F936F937F93F5
:1009B0008F939F93AF93BF93EF93FF935E980E94A3
:1009C0009F04FF91EF91BF91AF919F918F917F9184
:1009D0006F915F914F913F912F910F900BBE0F90B0
:1009E0000FBE0F901F901895CF92DF92FF920F933A
:1009F0001F93DF93CF9300D00F92CDB7DEB7F82EC1
:100A000082E0F81689F08F1530F0FF20F1F081E0D8
:100A1000F816C1F40BC084E0F81651F0F81650F047
:100A200085E0F81679F408C086E010C089E00EC0B1
:100A300086E10CC089E10AC088E08A8383E089836B
:100A400011E007C084E00E94D90688E08A83898388
:100A500010E08091610B853059F41123A1F580914C
:100A600039018D7F809339018DE790E00197F1F78F
:100A7000298182E06FE140E00E949D060CE838E0A9
:100A8000C32ED12C81E06FE140E00E9490068B8361
:100A90009A818B81981739F0C6010197F1F70023ED
:100AA00011F00150EFCF9A818B81981719F081E0F6
:100AB0000E94D906112329F0809139018260809328
:100AC0003901F092610B0F900F900F90CF91DF9151
:100AD0001F910F91FF90DF90CF9008951F93182FD3
:100AE00082E06FE140E023E00E949D06812F0E949A
:100AF000F4041F9108951F920F920FB60F920BB638
:100B00000F9211242F933F934F935F936F937F9393
:100B10008F939F93AF93BF93EF93FF935D988091D3
:100B2000610B813019F480E090E016C08330D1F47D
:100B300082E060EE45E00E949006833029F0833029
:100B400028F0853039F404C081E005C080E003C09E
:100B500082E001C083E090E00E94EB068091620B8E
:100B60000E94F404FF91EF91BF91AF919F918F91FB
:100B70007F916F915F914F913F912F910F900BBE9D
:100B80000F900FBE0F901F9018950F931F93CF9348
:100B9000DF93162F072F8430C9F1853058F4813048
:100BA00009F466C0813090F08230F1F0833009F0B2
:100BB0005CC037C0863009F43FC08630C0F1873052
:100BC00009F442C0883009F050C04BC0862F8B50CA
:100BD000803108F04AC088E06FE140E0212F0E9498
:100BE0009D0610935E0B44C0E62FEF5EE53108F0E2
:100BF0003CC060935F0BF0E0E05EFE4FE081F0E010
:100C0000E49185E06FE040E02E2F08C0643068F585
:100C10006093600B88E060E645E0212F0E949D060E
:100C200027C06093620B862F0E94F40421C082E2E9
:100C30000E94840683E204C080E20E94840681E26E
:100C4000602F0E94840614C0862F972F9C01E90113
:100C500014E2812F69910E9484061F5F1C32C9F73C
:100C600007C0862F0E94800603C082E00E94D9063A
:100C7000DF91CF911F910F9108959093640B809312
:100C8000630B6093650B809139018E7F80933901EE
:100C9000809139018D7F8093390181E090E0019747
:100CA000F1F7809139018160809339018EE060E035
:100CB0000E9484068FE00E948A0682E06FE140E095
:100CC00028E00E949D068FE790E00197F1F781E010
:100CD0006FE140E00E949006883019F081E00E94A8
:100CE000D90684E060E245E021E00E949D068EE0A6
:100CF0006CE40E9484061092610B1092620B0895BE
:100D0000833309F08FEF0895E82FF0E0E05CFE4FA9
:100D100060830895E82FF0E0E05CFE4F8081089545
:100D2000E82FF0E0E05CFE4F8081862390E002C077
:100D3000959587954A95E2F70895E82FF0E0E05CF5
:100D4000FE4F30E002C0220F331F4A95E2F7962F84
:100D50009223609580818623982B90830895FF923B
:100D60000F931F93CF93DF93EA01F0907B01F61668
:100D700008F46F2D062F10E060E871E0402F50E07E
:100D80000E945F1100581E4FF801808188838F2DCB
:100D9000DF91CF911F910F91FF900895482F87FD0C
:100DA0004FE74093800181E891E050E00E945F119D
:100DB0000895E091660BF091670B309709F0099563
:100DC0000895E0916A0BF0916B0B309711F0099543
:100DD000BC01CB010895E0916C0BF0916D0B309745
:100DE00009F00995089590936B0B80936A0B089511
:100DF00090936D0B80936C0B08957093670B6093C9
:100E0000660B0895CF93DF93582F4093EF0C80919A
:100E1000F00C882309F044C080916E0C583030F4F7
:100E2000C82FD0E0462FCB01DC0135C0C82FD0E061
:100E300097E0252F30E02250304015C080916D0C96
:100E4000E82FF0E03196AF014F77507031974C1793
:100E50005D0771F1E351F44FA60FB71F8C918083AA
:100E600040936D0C9F5FA92FB0E0A217B30734F336
:100E70001FC080916D0CE82FF0E031969F012F7715
:100E8000307031972C173D0799F0E351F44F8D9155
:100E9000808320936D0C8A2F841B851750F308C024
:100EA000E091F40CF091F50C852F09959C0102C09E
:100EB0002DEE3BE0C901DF91CF91089580916E0C3A
:100EC00080936D0C089590916E0C80916D0C891734
:100ED00019F42FEF3FEF0CC0892F90E0FC01E35194
:100EE000F44F208101968F77907080936E0C30E0E4
:100EF000C901089580916D0C90E080589F4F20911A
:100F00006E0C821B910960E870E00E943211089516
:100F100081E08093F20C87E08093EE0C08959C01B1
:100F20008091F10C882331F0E091F60CF091F70CF0
:100F3000C90109951092F30C089580E090E070E0EB
:100F40000E94C5050895862F0E946E050895862F7C
:100F50000E94F4040895DF93CF9300D0CDB7DEB79D
:100F60001092F20C8091EE0C8E5F8093EE0C8FEF5E
:100F70009FEF9A8389838091F30C8823A1F0898164
:100F80009A8101979A838983019669F0F4CF8091C1
:100F9000F30C8823D1F089819A8101979A83898300
:100FA000019699F0F4CF81E08093F30C0E94F40451
:100FB0005D9A8091EE0C6FE67CE040E00E94940424
:100FC0008FEF9FEF9A838983E2CF82E00E94F4043F
:100FD0001092F30C0F900F90CF91DF910895DF9353
:100FE000CF9300D0CDB7DEB79C018091F20C88235F
:100FF000D1F08091EE0C8D3708F04DC0E82FF0E075
:10100000E159F34F60838F5F8093EE0C8D3709F0C9
:1010100042C0C9010E94AB0781E08093F20C87E0D7
:101020008093EE0C38C06093760C1092770C10927F
:10103000780C8FEF9FEF9A8389838091F30C88233C
:10104000A1F089819A8101979A838983019669F039
:10105000F4CF8091F30C8823C9F089819A8101979C
:101060009A838983019691F0F4CF81E08093F30C09
:101070000E94F4045D9A8AE06FE67CE040E00E9402
:1010800094048FEF9FEF9A838983E3CF82E00E94DD
:10109000F4041092F30C0F900F90CF91DF9108950C
:1010A0001F93CF93DF93162FEA018EE69BE06FE745
:1010B0000E943D06209781F020E030E0F901E159DF
:1010C000F34FDE01A20FB31F8C9180832F5F3F4F40
:1010D0002730310599F714C081E080936F0C80E8C8
:1010E0008093700C1092710C81E18093720C82E2FB
:1010F0008093730C83E38093740C84E48093750C69
:1011000080E090E0612F70E00E94C50582E00E94BF
:10111000F404569A559A5E985D98DF91CF911F918D
:1011200008951092670B1092660B1092690B109243
:10113000680B82E097E00E94F3068FE897E00E9438
:10114000F806089588EF9CE00E9491080895CB016D
:10115000642F0E949C110895CB010E949411089560
:101160000F931F93CF93DF93DC011296ED91FC91C7
:1011700013978081482F552747FD509514962D9140
:101180003C911597632F661F6627661FED018D0141
:1011900005501040662381F08091E8038A871296FB
:1011A000ED91FC9113978181882309F440C0482F69
:1011B000552747FD50953DC0CA018097FC01EE0FB1
:1011C000FF1FEE0FFF1FE80FF91FE20FF31FE8519B
:1011D000FC4F80818A872150304037FD61E02197A4
:1011E000C017D107B9F614968D919C911597019768
:1011F00015969C938E9314978F5F9F4F7CF484E099
:1012000090E015969C938E93149712968D919C91D5
:101210001397019613969C938E9312979D012A5FC4
:101220003F4FC901DF91CF911F910F91089540E287
:1012300050E060E024E030E0D2CFEF92FF920F93D5
:101240001F93DF93CF93CDB7DEB72B970FB6F894EC
:10125000DEBF0FBECDBF9A8389839C838B8384E0DE
:1012600090E09E838D8300E010E07E010894E11CF5
:10127000F11C09C0C7010E94B0086EE170E00E9435
:10128000110A0F5F1F4FA981BA81FD010190002053
:10129000E9F73197EA1BFB0BCF01880F991F8E0FDF
:1012A0009F1F880F991F0817190720F32B960FB659
:1012B000F894DEBF0FBECDBFCF91DF911F910F918C
:1012C000FF90EF9008958DB18F618DB98FEF80BB46
:1012D000E6E3F1E08081806F8083089540E050E094
:1012E00061E070E02EB1CB01042E02C0880F991F7F
:1012F0000A94E2F7809582238EB94F5F5F4F4530A5
:10130000510581F708953F924F925F926F927F92BD
:101310008F929F92AF92BF92CF92DF92EF92FF9205
:101320000F931F93CF93DF939FEF91BB9EB121E06B
:1013300030E0062E02C0220F331F0A94E2F7622E1D
:10134000722E709497219EB938E4C32E38E0D32EC4
:10135000C0E0D0E0A82EBB2427E0422E512C33243D
:10136000339491E0892E912C7B01EE0CFF1C28E533
:1013700038E0E20EF31E0C2FC2018C1B9D0BF50111
:1013800002C0F595E7958A95E2F71E2F1170132597
:10139000F894112369F081B394010C2E02C0220F3E
:1013A000331F0A94E2F7822B81BB8EB187218EB95D
:1013B00081E090E00E94560C1123B9F081B39401B2
:1013C00002C0220F331F0A95E2F72095282321BB84
:1013D0008EB186298EB9F601808161E00E943D0DB3
:1013E000F701808160E00E943D0D7894219622E013
:1013F00030E0C20ED31EC830D10509F0BCCFDF915A
:10140000CF911F910F91FF90EF90DF90CF90BF9001
:10141000AF909F908F907F906F905F904F903F9094
:101420000895CF92DF92EF92FF920F931F93CF9385
:10143000DF937C018B0144E0C42ED12C12C0C4E0A8
:10144000D0E00E946E09F701EC0FFD1FB6016C1B86
:101450007D0B80810E94830921978FEFCF3FD807B2
:1014600081F70150104059F7DF91CF911F910F91F3
:10147000FF90EF90DF90CF900895CF92DF92EF92A0
:10148000FF920F931F93DF93CF93CDB7DEB7C05773
:10149000D0400FB6F894DEBF0FBECDBFDE0111966F
:1014A000E6E5FBE085E001900D928150E1F7DE0179
:1014B0001696E1E5FBE085E001900D928150E1F7A1
:1014C000DE011B96ECE4FBE085E001900D9281507B
:1014D000E1F7DE015096E7E4FBE085E001900D9234
:1014E0008150E1F7DE015596E2E4FBE085E00190F2
:1014F0000D928150E1F7DE015A96EDE3FBE085E0C5
:1015000001900D928150E1F7DE015F96E8E3FBE088
:1015100085E001900D928150E1F7DE019496E3E3BE
:10152000FBE085E001900D928150E1F7DE01999694
:10153000EEE2FBE085E001900D928150E1F7DE01E3
:101540009E96E9E2FBE085E001900D928150E1F783
:10155000DE01D396E4E2FBE085E001900D9281503C
:10156000E1F7DE01D896EFE1FBE085E001900D9216
:101570008150E1F7FE01FD968AE1DF011D928A9517
:10158000E9F78AEF9CE09EAF8DAFCE010196FE0198
:10159000FF9691838083CE010696FE01EF5BFF4F9D
:1015A00091838083CE010B96FE01ED5BFF4F91830B
:1015B0008083CE014096FE01EB5BFF4F91838083D9
:1015C000CE014596FE01E95BFF4F91838083CE01FA
:1015D0004A96FE01E75BFF4F91838083CE014F96D1
:1015E000FE01E55BFF4F91838083CE018496FE016F
:1015F000E35BFF4F91838083CE018996FE01E15B1F
:10160000FF4F91838083CE018E96FE01EF5AFF4FEC
:1016100091838083CE01C396FE01ED5AFF4F9183E3
:101620008083CE01C896FE01EB5AFF4F91838083E1
:10163000DE01A95ABF4FE5E0FBE08AE101900D927F
:101640008150E1F700E010E0EDE3EE2EF12CEC0E1E
:10165000FD1E77E5C72ED12CCC0EDD1EF701E00F65
:10166000F11FD601A00FB11F6D917C9180819181F6
:101670000E94110A0E5F1F4F0A31110579F7870189
:10168000085E1F4F68E1E62EF12CEC0CFD1C5BE3BD
:10169000C52ED12CCC0EDD1EF70160817181D801E1
:1016A0008D919C910E94110A02501040EEEFFFEFC5
:1016B000EE0EFF1E0C151D0579F7C059DF4F0FB652
:1016C000F894DEBF0FBECDBFCF91DF911F910F9178
:1016D000FF90EF90DF90CF900895EF92FF920F93DD
:1016E0001F93CF93DF938B309105C8F5C0E0D0E016
:1016F000880F991FB6EEEB2EBAE0FB2EE80EF91E0E
:101700008C010E52154F0FC0CE01880F991FD801C2
:10171000ED91FC91E80FF91F8081918164E670E002
:101720000E94110A2196F70180819181C817D9077B
:1017300058F30E946E0962E370E080E090E00E943E
:10174000300C2197CC0FDD1FD801ED91FC91EC0FEF
:10175000FD1F808191816CE271E00E94110ADF918E
:10176000CF911F910F91FF90EF9008951F920F92CC
:101770000FB60F9211242F933F934F935F936F9364
:101780007F938F939F93AF93BF932091030D3091DD
:10179000040D4091050D5091060D7091070DDA0171
:1017A000C9014096A11DB11D672F605D6D3730F0F6
:1017B0006D57DA01C9014196A11DB11D6093070D56
:1017C0008093030D9093040DA093050DB093060D27
:1017D0008091FF0C9091000DA091010DB091020D30
:1017E0000196A11DB11D8093FF0C9093000DA09355
:1017F000010DB093020DBF91AF919F918F917F9199
:101800006F915F914F913F912F910F900FBE0F906D
:101810001F9018959FB7F8942091FF0C3091000D00
:101820004091010D5091020D86B5A89B06C08F3FD7
:1018300021F02F5F3F4F4F4F5F4F9FBF542F432FDC
:10184000322F2227280F311D411D511D86E0220F06
:10185000331F441F551F8A95D1F7B901CA01089556
:10186000EF92FF920F931F93CF93DF937B018C0135
:101870000E940A0CEB010EC00E940A0C6C1B7D0B2F
:10188000685E7340C8F30894E108F1080109110982
:10189000C851DC4FE114F1040105110569F7DF912E
:1018A000CF911F910F91FF90EF900895019739F01C
:1018B000019729F0880F991F01970197F1F7089573
:1018C000789484B5826084BD84B5816084BD85B51B
:1018D000826085BD85B5816085BDEEE6F0E08081E2
:1018E00081608083E1E8F0E0108280818260808303
:1018F000E0E8F0E0808181608083E1EBF0E08081CE
:1019000084608083E0EBF0E0808181608083E1E9A6
:10191000F0E0808182608083808181608083E0E963
:10192000F0E0808181608083E1EAF0E08081826084
:101930008083808181608083E0EAF0E08081816043
:101940008083E1E2F1E08081826080838081816038
:101950008083E0E2F1E0808181608083EAE7F0E06B
:1019600080818460808380818260808380818160C7
:1019700080838081806880831092C10008958930BF
:1019800009F44FC08A30A0F4843081F1853040F4EE
:101990008230C9F1833030F5813009F06DC030C03C
:1019A0008730A9F18830B8F5853009F065C022C0CC
:1019B0008D3009F448C08E3028F48B30D1F18C3052
:1019C000F0F533C0803109F448C0813120F48E3005
:1019D00009F052C03CC0813109F443C0823109F0A2
:1019E0004BC045C0809180008F7707C080918000F8
:1019F0008F7D03C080918000877F80938000089551
:101A000084B58F7702C084B58F7D84BD08958091A1
:101A1000B0008F7703C08091B0008F7D8093B000BD
:101A20000895809190008F7707C0809190008F7DFE
:101A300003C080919000877F8093900008958091EB
:101A4000A0008F7707C08091A0008F7D03C0809198
:101A5000A000877F8093A0000895809120018F7758
:101A600003C0809120018F7D809320010895809193
:101A70002001877F809320010895FF920F931F9389
:101A8000F62E482F50E0CA0181539E4FFC0124914D
:101A9000CA0187559E4FFC0114914D575E4FFA01C4
:101AA00004910023C9F0222319F0822F0E94BF0C59
:101AB000E02FF0E0EE0FFF1FE15BFE4FA591B49128
:101AC0009FB7F894FF2021F48C911095812302C0D8
:101AD0008C91812B8C939FBF1F910F91FF90089544
:101AE000CF93DF930E94600C0E940604C0E0D0E018
:101AF0000E94CA022097E1F30E940000F9CF0F93E1
:101B00001F93CF93DF93FC018B0141155105F9F031
:101B100061157105E1F0848195812817390718F066
:101B2000FB01108214C041505040EC01C21BD30B8A
:101B30004C175D0708F4EA0160817181620F731F21
:101B4000C801AE010E946F11C00FD11F1882DF9132
:101B5000CF911F910F9108950F931F93CF93DF9310
:101B6000EC018B016F5F7F4F888199810E94581033
:101B7000009711F480E005C0998388831B830A8352
:101B800081E0DF91CF911F910F910895CF93DF9363
:101B9000EC0188819981892B29F08A819B818617A4
:101BA000970760F4CE010E94AC0D882341F08C8130
:101BB0009D81892B19F4E881F981108281E0DF9100
:101BC000CF910895EF92FF920F931F93CF93DF93DE
:101BD000EC017B016C817D81E114F104C1F04115C0
:101BE000510599F08A01060F171FB8010E94C60D12
:101BF000882369F0888199812C813D81820F931F10
:101C0000B7010E9468111D830C8381E001C080E050
:101C1000DF91CF911F910F91FF90EF900895611583
:101C2000710511F480E00895DB010D900020E9F7C3
:101C30001197A61BB70BAD010E94E20D0895FB01A1
:101C400060817181448155810E94E20D0895CF9396
:101C5000DF93EC0188819981009711F00E94C00FF9
:101C6000198218821D821C821B821A82DF91CF91F9
:101C700008950F931F93182F092F6115710561F0B7
:101C8000DB010D900020E9F71197A61BB70BAD0102
:101C90000E94E20D882321F4812F902F0E94270EAD
:101CA000812F902F1F910F9108950F931F93182F3D
:101CB000092FFB0160817181448155810E94E20DF1
:101CC000882321F4812F902F0E94270E812F902F9F
:101CD0001F910F910895EF92FF920F931F93CF934F
:101CE000DF93EC017B018A01BA010E94C60D8823B3
:101CF00021F4CE010E94270E07C01D830C8388812A
:101D00009981B7010E946811CE01DF91CF911F9197
:101D10000F91FF90EF900895CF93DF93EC0119821C
:101D200018821B821A821D821C821E826115710517
:101D300051F0DB010D900020E9F71197A61BB70BBE
:101D4000AD010E946B0EDF91CF910895CF93DF9389
:101D5000EC01198218821B821A821D821C821E824B
:101D60006115710551F0DB010D900020E9F7119725
:101D7000A61BB70BAD010E946B0EDF91CF910895AA
:101D80000F931F93182F092F6115710559F0DB016F
:101D90000D900020E9F71197A61BB70BAD010E942B
:101DA0006B0E02C00E94270E812F902F1F910F9162
:101DB0000895EF92FF920F931F93DF93CF93CDB7C8
:101DC000DEB729970FB6F894DEBF0FBECDBF8C01EA
:101DD000862FF801118210821382128215821482DA
:101DE000168290E07E010894E11CF11CB70150E0DE
:101DF0000E947E11C801B7010E94C00E29960FB63D
:101E0000F894DEBF0FBECDBFCF91DF911F910F9130
:101E1000FF90EF900895CF93DF93EC01FB018617BD
:101E2000970761F0608171816115710529F0448126
:101E300055810E946B0E02C00E94270ECE01DF91D9
:101E4000CF910895FC0111821082138212821582B3
:101E5000148216820E940B0F0895FC0180819181EB
:101E60000E94C00F0895FC01808191810E94C00FE3
:101E700008950F931F93CF93DF93BC018230910598
:101E800010F462E070E0E091090DF0910A0DA0E01D
:101E9000B0E040E050E024C0808191818617970730
:101EA000D0F08617970771F482819381109729F0FB
:101EB00013969C938E9312972CC090930A0D809347
:101EC000090D27C04115510519F08417950718F41D
:101ED000EF018D01AC01DF01828193819C01F90149
:101EE0003097D1F641155105F9F0CA01861B970BC1
:101EF0008430910580F48A819B810115110521F0C0
:101F0000F8019383828304C090930A0D8093090D96
:101F1000FE0132962FC0FE01E80FF91F6193719305
:101F200002979983888326C08DB79EB788579040C3
:101F30002091FA0A3091FB0A28173907C8F4AC013E
:101F4000421B530B4617570798F0CB0102964817D0
:101F5000590770F0820F931F9093FB0A8093FA0A3F
:101F60009093FD0A8093FC0AF9016193719302C07A
:101F7000E0E0F0E0CF01DF91CF911F910F91089544
:101F8000CF93DF939C01009709F48FC0EC01229757
:101F90001B821A826091090D70910A0D61157105FD
:101FA00081F488819981820F931F2091FA0A3091E0
:101FB000FB0A2817390739F5D093FB0AC093FA0AB0
:101FC00074C0DB0140E050E0AC17BD0708F1BB83F3
:101FD000AA83FE0121913191E20FF31FAE17BF07D3
:101FE00079F48D919C911197280F391F2E5F3F4FE7
:101FF0003983288312968D919C9113979B838A83B2
:102000004115510571F4D0930A0DC093090D4DC0CF
:1020100012968D919C911397AD01009711F0DC0100
:10202000D3CFDA011396DC93CE931297FA01219164
:102030003191E20FF31FCE17DF0769F48881998190
:10204000280F391F2E5F3F4FFA01318320838A8189
:102050009B8193838283E0E0F0E0DB0112968D9117
:102060009C911397009719F0BC01FD01F6CFAB01CD
:102070004E5F5F4FDB018D919C91840F951F2091E6
:10208000FA0A3091FB0A2817390779F4309729F4B6
:1020900010920A0D1092090D02C013821282425052
:1020A00050405093FB0A4093FA0ADF91CF91089574
:1020B0006F927F928F929F92AF92BF92CF92DF9258
:1020C000EF92FF920F931F93CF93DF938C010097B2
:1020D00029F4CB010E94390F8C01B4C08EEFE82E99
:1020E0008FEFF82EE00EF11E5801A60EB71EAE14AB
:1020F000BF0408F4A5C0D7014D915C911197461714
:102100005707B8F04530510508F49CC0CA01049740
:102110008617970708F496C042505040461B570B4D
:10212000F501419351936D937C93CF010E94C00FB1
:1021300089C04B01841A950A3801640E751EA0915E
:10214000090DB0910A0DE0E0F0E0CC24DD2447C099
:10215000A615B705A9F5CD91DC911197CE01029690
:102160008815990568F1CE01881999090296129689
:102170002C91129713963C91059758F0F501228304
:102180003383C819D909D183C083D7016D937C9358
:1021900009C04E5F5F4F4C0F5D1FF70151834083B5
:1021A000C901FC01C114D10431F0D6011396FC938E
:1021B000EE93129747C0F0930A0DE093090D42C0C9
:1021C0008D919C911197E817F90708F4FC016D01B6
:1021D00012968C91129713969C919C01D90110979D
:1021E00009F0B6CF8091FA0A9091FB0A86159705FF
:1021F000B1F4E617F70798F48DB79EB7885790406B
:10220000A816B906E8F4B092FB0AA092FA0AB092B6
:10221000FD0AA092FC0AF7017183608313C0CB0111
:102220000E94390FEC01009759F0D7014D915C9154
:10223000B8010E945F11C8010E94C00F8E0102C048
:1022400000E010E0C801DF91CF911F910F91FF9046
:10225000EF90DF90CF90BF90AF909F908F907F9046
:102260006F90089597FB092E07260AD077FD04D0BA
:102270000CD006D000201AF4709561957F4F089518
:10228000F6F7909581959F4F0895AA1BBB1B51E1CE
:1022900007C0AA1FBB1FA617B70710F0A61BB70BD6
:1022A000881F991F5A95A9F780959095BC01CD017B
:1022B0000895EE0FFF1F0590F491E02D0994FB01A6
:1022C000DC0102C001900D9241505040D8F70895B2
:1022D000FB01DC0101900D920020E1F70895FB0164
:1022E000DC014150504048F001900D920020C9F7A8
:1022F00001C01D9241505040E0F70895FB019F013D
:10230000423074F0453264F4642F77270E944511FF
:10231000805D8A330CF0895D8193CB010097A1F732
:102320001082C9010C94AA11F999FECF92BD81BD0A
:10233000F89A992780B50895262FF999FECF1FBAEC
:1023400092BD81BD20BD0FB6F894FA9AF99A0FBEDE
:1023500001960895DC01FC01672F71917723E1F765
:10236000329704C07C916D9370836291AE17BF0762
:08237000C8F30895F894FFCFB3
:1023780057445400307800003000200067657449E5
:1023880044206C656E20626164210020726164697A
:102398006F206572726F72200048617A2046726DF4
:1023A8000054485854002A2A20537175656C636894
:1023B800202A2A2A002A2A2A2000202A2A2A002A11
:1023C8002A2A204772656574696E67732054484FDE
:1023D80054434F4E20307834204261646765204E64
:1023E8006F64653A002A2A2A2050726F78696D69ED
:1023F800747920566572696669636174696F6E20C5
:10240800436F6D706C6574653A202A2A2A002A2A5F
:102418002A20436F6E67726174756C6174696F6EA0
:1024280073212054657472697320436F6D706C65F5
:102438007465212121202A2A2A002A2A2A20486F65
:10244800737420436F6D6D756E69636174696F6E27
:102458002045737461626C6973686564202A2A2A4E
:10246800002A2A2A20506C6561736520446F6E2704
:1024780074204861636B204D65202A2A2A00476F23
:102488006F64204D6F726E696E67210049206E651A
:1024980065642061204265657200425552502042B1
:1024A8005552502042555250004C756E6368205466
:1024B800696D65212121204E6F6D204E6F6D204E74
:1024C8006F6D00466F726B204D7920446F6E676C9C
:1024D8006500506C6561736520446F6E27742048F1
:1024E80061636B204D650053544655004170706C14
:1024F800617573650044696E6E65722054696D6517
:10250800212121204E6F6D204E6F6D204E6F6D0082
:1025180053656520796F752061742054484F544382
:102528004F4E20307835004754464F006337666970
:1025380076652077617320686572652E004F027595
:10254800029E02CA02F10245022030784445414405
:102558002000FF0001000A00FFFFFFFFFFFFFF86CA
:10256800FFFFFF8FFF8FFFEB80EB80EBDBD580D584
:10257800EDDCECF79B9DFADDAAB6C9FFFF9FAFFF24
:10258800FFBEDDE3FFFFE3DDBEFFF7D5E3D5F7F7D9
:10259800F7C1F7F7FFFFF9FAFFF7F7F7F7F7FFFFCC
:1025A800F9F9FFDFEFF7FBFDC1AEB6BAC1FFFE8058
:1025B800DEFFCEB6BABCDEB996AEBEBDFB80DBEBA5
:1025C800F3B1AEAEAE8DF9B6B6D6E19FAFB7B8BF30
:1025D800C9B6B6B6C9C3B5B6B6CFFFFFC9C9FFFFFE
:1025E800FFC9CAFFBEDDEBF7FFEBEBEBEBEBFFF749
:1025F800EBDDBECFB7BABFDFC1BEB0B6D9C0BBBB7B
:10260800BBC0C9B6B6B680DDBEBEBEC1E3DDBEBEC8
:1026180080BEB6B6B680BFBFB7B780D9BABEBEC196
:1026280080F7F7F780FFBE80BEFFBF81BEFEFDBE0C
:10263800DDEBF780FEFEFEFE8080DFEFDF8080FBB3
:10264800F7EF80C1BEBEBEC1CFB7B7B780C2BDBAB3
:10265800BEC1CEB5B3B780B9B6B6B6CEBFBF80BF20
:10266800BF81FEFEFE8183FDFEFD8380FDF3FD80BC
:102678009CEBF7EB9C9FEFF0EF9F9EAEB6BABCBE0B
:10268800BE80FFFFFDFBF7EFDFFFFF80BEBEEFDF81
:10269800BFDFEFFEFEFEFEFEFFEFDFBFFFF0EAEA60
:1026A800EAFDF1EEEEF680FDEEEEEEF180F6EEEEEE
:1026B800F1F3EAEAEAF1DFBFB7C0F7E1EAEAEBF7DC
:1026C800F0EFEFF780FFFEA0EEFFFFA1EEFEFDEEBC
:1026D800F5FB80FFFFFE80BEFFF0EFF3EFE0F0EFC9
:1026E800EFF7E0F1EEEEEEF1F7EBEBEBE0E0F3EB1A
:1026F800EBF7F7EFEFF7E0FDEAEAEAF6FDFEEE8129
:10270800EFE0FDFEFEE1E3FDFEFDE3E1FEF9FEE1A3
:10271800EEF5FBF5EEE1FAFAFAE7EEE6EAECEEFFA3
:10272800BEC9F7FFFFFF80FFFFFFF7C9BEFFF7FB3A
:10273800F7F7FBF0EEDEEEF0DDBEAAC1EB007B1B87
:102748006BF0FFFFF9FAFFDFB7C1F6FDFAFCFFFAFD
:10275800FCFEFFFEFFFEFFDF80DFFFFFDD80DDFF09
:10276800FFDFBFDFFFBCDCEF343CD936B636CDFF28
:10277800FFEBF7FFB6C1BEBEC1F9F6F680BF9E2ECD
:10278800B63ABCC1B6AEB6DDE6F9F6EEF1FFEFDF5C
:10279800BFFFFFBFDFEFFFEFDFAFDFBFBFDFAFDFA1
:1027A800EFFFE3E3E3FFF7F7F7F7FFF7F7F7F7F7DD
:1027B800BFDFBF7FBF7575552570FD6AAA6AF6FF32
:1027C800FBF5EEFFF2EAF1EEF1E3C1E0C1E3EE66FC
:1027D800AA6CEEC77BFC7BC7FFFFFFFFFFFFFFB0C4
:1027E800FFFFFBDD80DDE3FDBEB6C1F6DDE3EBE315
:1027F800DDABCBE0CBABFFFF88FFFFDFB5AAD6FD93
:10280800FFBFFFBFFF80B6A2BE80C2AAAAAAF6EE8B
:10281800F5EAF5FBF8FBFBFBFBFBFBFBFBFB80BADC
:10282800ACBE80BFBFBFBFBFFF8F77778FEEEE8292
:10283800EEEEFFB75767B7FFAF575777FFBFDFEF2A
:10284800FF83F7FBFB808080B7B7CFFFFFF3F3FF71
:10285800FFFDF2FEFFFFFF0FBFFFFFBF5FBFFFF7E8
:10286800EBD5EBDDA0D5E907BBF2ECF607BFE0F549
:10287800F90757FDFEAEF6F9F0EB9B6BF0F06B9B9A
:10288800EBF0F0AB6BABF070AB6B6BB0F06BDB6B82
:10289800F0F0AB4BABF0B6B680DBE0B7787A7B876D
:1028A800EEEAAA6AE0EE6AAAEAE0EEAA6AAAE0EE0E
:1028B800AAEAAAE0FFEEA06EFFFF6EA0EEFFFFAE51
:1028C80060AEFFFFAEE0AEFFC1BEB680F760BD7B75
:1028D80077A0E1DE9E5EE1E15E9EDEE1F1AE6EAEE6
:1028E800F171AE6E6EB1E15EDE5EE1DDEBF7EBDD60
:1028F800F7AA80AAF7C1FEBE7EC1C17EBEFEC1E1B5
:10290800BE7EBEE1C17EFE7EC1DF6FB0EFDFE7DBDA
:10291800DB007EC9B6B6C1FEF0EAAA6AFDF06AAA73
:10292800EAFDF0AA6AAAFD70AA6A6ABDF0AAEAAA34
:10293800FDF0AA4AAAFDE5D6E1D6D9F7D8DADBE751
:10294800F3EAAA6AF1F36AAAEAF1F3AA6AAAF1F326
:10295800AAEAAAF1FFFEA076FFFF7EA0F6FFFFBE5F
:1029680060B6FFFFBEE0B6FFF9F2AADAAD70AF6F4E
:1029780077A0F1EEAE6EF1F16EAEEEF1F9D6B6D605
:10298800F9B9D6B6B6D9F1AEEEAEF1F7F7D5F7F795
:10299800F7ABC1EAF7E0FDBE7EE1E07DBEFEE1E017
:1029A800BD7EBEE1E0BDFEBEE1E1BADAFAE7F7EAD4
:1029B80080BEFFE1BAFABAE70E000F00100011005E
:1029C8001200130021002300240025000400050044
:1029D8000600FFFFFFFEF8FFFEFCFCF8F0FEFCFC23
:1029E800F8F0F8F8F8F8F0F0E0F0F8C0C0E0F0F827
:1029F800C0C0E0C0E0C0C0E080008080808000628D
:102A08000867086C08710876087B08800885088ABA
:102A180008FA0CFF7F7FFFFFFFBF3FFFFFFFDF1FAD
:102A2800FFFFFFEF8FFFFFFFF7C7FFFFFFFFF7C7AE
:102A3800FFFFFFFFFBE3FFFFFFFDF1A308A808ADC1
:102A480008B208B708BC08C108C6086208FFFFFF3B
:102A5800FEF8FFFF7FFEF8FF7F3FFEF8FF3F9FFE77
:102A6800F8FF9FCFFEF8FFCFE7FEF8FFF7E7EEF895
:102A7800FFFBF3F6F8FFFDF9FAF8DD08E208E708CE
:102A8800EC08F108F608FB08000905096708FFFECD
:102A98007CFCF8FFFE3CFCF8FFFE1CFCF8FF1EFC6B
:102AA800FCF8FF0EFCFCF8FF86FCFCF8FFC2FCFCFF
:102AB800F8C3FEFCFCF8E1FEFCFCF81E092309281B
:102AC800092D09320937093C09410946096C08F002
:102AD8007E7CFCF8F03EBCFCF8F01EDCFCF8F09EB6
:102AE800BCBCF8F0CEDCDCF8F0E6ECECF8F0F2F484
:102AF800F4F85F09640969096E09730978097D09A1
:102B08007108F0787878F8F0B838B8F8F0D898D82C
:102B1800F8F0E8C8E8F8920997099C09A10976082D
:102B2800F07060F0F8F03020F0F8F09080F0F89055
:102B380090E0F0F8B009B509BA09BF097B08C040B0
:102B480060F0F8C0802070F8C00040F0F8C0C020E5
:102B580090F8C0C0E090C8CE09D309D809DD09E2D1
:102B6800098008C0C060C0E0C04020C0E0C0C060AC
:102B780000E0C0C0E04020F309F809FD09020A8519
:102B880008C040608000C080208000110A160A8AB0
:102B9800088A08FA0C00EA10EA007FFFFFFFFFBF6F
:102BA800FFFFFFFFDFFFFFFFFFEFFFFFFFFFF7FF65
:102BB800FFFFFFFBFFFFFFFFFDFFFFFFFFFEFFFF24
:102BC800FFFFFFFF7FFFFFFFFFBFFFFFFFFFDFFFED
:102BD800FFFFFFEFFFFFFFFFF7FFFFFFFFFBFFFF19
:102BE800FFFFFDFFFFFFFFFEFFFFFFFFFFFF7FFF70
:102BF800FFFFFFBFFFFFFFFFDFFFFFFFFFEFFFFF4D
:102C0800FFFFF7FFFFFFFFFBFFFFFFFFFDFFFFFFDA
:102C1800FFFE7A0A7F0A840A890A8E0A930A980AAA
:102C28009D0A520A570A5C0A610A660A6B0A700A08
:102C3800750A2A0A2F0A340A390A3E0A430A480A38
:102C48004D0ACB080A094B098209A609C409E709F4
:102C5800070A1B0A210A09000A000A0008000500E1
:102C6800050006000500030002000B0D640001804A
:102C78000054484F54640064001E001E001E001ECD
:102C88000064001E001E0064001E001E009600EF77
:102C980083EFEF8FFF83EFEF8FFF93EFF797BBD7AC
:102CA800EFD7BB93C7D7C79383D7BBD78383BBBBA8
:102CB800BB83C3DBDBDBC3DBC3DBDBC3DBDBC3DB4C
:0C2CC800C3ADAD85ADA176760676700038
:00000001FF
