:100000000C94F1000C941B010C941B010C941B012B
:100010000C941B010C941B010C941B010C941B01F0
:100020000C941B010C941B010C941B010C941B01E0
:100030000C941B010C941B010C941B010C941B01D0
:100040000C941B010C941B010C941B010C941B01C0
:100050000C941B010C941B010C941B010C941A03AF
:100060000C941B010C941B010C941B010C941B01A0
:100070000C941B010C941B010C941B010C941B0190
:100080000C941B010C941B010C941B010C941B0180
:100090000C941B010C941B010C941B010C941B0170
:1000A0000C941B010C941B010C941B010C941B0160
:1000B0000C941B010C941B010C941B010C941B0150
:1000C0000C941B010C941B010C941B010C941B0140
:1000D0000C941B010C941B010C941B010C941B0130
:1000E0000C941B010C941B010C941B010C941B0120
:1000F0000C941B010C941B010C941B010C941B0110
:100100000C941B010C941B010C941B010C941B01FF
:100110000C941B010C941B010C941B010C941B01EF
:1001200000000000240000002A002D0030003300F1
:10013000000000000000000000000000000025009A
:1001400000002B002E0031003400000000000000F1
:1001500000000000000000000000260029002C0024
:100160002F00320000000000000000000000040426
:10017000050505050505020202020202060606063D
:10018000060602040404040402070407070707061E
:100190000706050504084020040810801080402050
:1001A00008020102040810200401022040800120FE
:1001B000100810020440018001020000000B000939
:1001C0000A00070504030000000000000000000012
:1001D000000000000002000000000000000000001D
:1001E0001D0111241FBECFEFD1E4DEBFCDBF17E04C
:1001F000A0E0B2E0ECE2F9E000E00BBF02C0079043
:100200000D92A03CB107D9F717E0A0ECB7E001C010
:100210001D92AE3CB107E1F711E0C2EED1E004C09F
:100220002297FE010E949004C03ED107C9F70E94A8
:100230007F040C9494040C940000E6E3F1E08081C8
:100240008093C00780818093C107E7E3F1E080815C
:100250008093C20780818093C30780915D01809362
:10026000C4070895CF93DF938091270390912803CB
:100270000E94D4028091290390912A030E94D40203
:1002800080912B0390912C030E94D402CDE2D3E005
:10029000899199910E94D40283E0C734D807C1F7AD
:1002A00080EC97E064E670E00E943B0280EC97E00F
:1002B00064E670E00E943B0280EC97E064E670E048
:1002C0000E943B0280EC97E064E670E00E943B02F3
:1002D00080EC97E064E670E00E943B0280EC97E0DF
:1002E00064E670E00E943B0280EC97E064E670E018
:1002F0000E943B020E949801DF91CF9108950E94D5
:100300008D01E7E3F1E080818093C00780818093D5
:10031000C10780818093C40708958DB18F618DB925
:100320008FEF80BBE6E3F1E08081806F80830895EA
:1003300040E050E061E070E02EB1CB01042E02C03D
:10034000880F991F0A94E2F7809582238EB94F5F38
:100350005F4F4530510581F708953F924F925F926C
:100360006F927F928F929F92AF92BF92CF92DF92C5
:10037000EF92FF920F931F93CF93DF939FEF91BB69
:100380009EB121E030E0062E02C0220F331F0A94F6
:10039000E2F7622E722E709497219EB935E4C32E37
:1003A00033E0D32EC0E0D0E0A82EBB2427E0422EBD
:1003B000512C3324339491E0892E912C7B01EE0C47
:1003C000FF1C25E533E0E20EF31E0C2FC2018C1B4F
:1003D0009D0BF50102C0F595E7958A95E2F71E2F72
:1003E00011701325F894112369F081B394010C2E38
:1003F00002C0220F331F0A94E2F7822B81BB8EB119
:1004000087218EB981E090E00E9462031123B9F048
:1004100081B3940102C0220F331F0A95E2F72095A1
:10042000282321BB8EB186298EB9F601808161E037
:100430000E944C04F701808160E00E944C04789493
:10044000219622E030E0C20ED31EC830D10509F05B
:10045000BCCFDF91CF911F910F91FF90EF90DF9074
:10046000CF90BF90AF909F908F907F906F905F9054
:100470004F903F900895CF92DF92EF92FF920F93AB
:100480001F93CF93DF937C018B0144E0C42ED12CCA
:1004900012C0C4E0D0E00E949801F701EC0FFD1FEC
:1004A000B6016C1B7D0B80810E94AD0121978FEFFF
:1004B000CF3FD80781F70150104059F7DF91CF9116
:1004C0001F910F91FF90EF90DF90CF9008950F93C1
:1004D0001F93CF93DF93DC011296ED91FC9113975C
:1004E0008081482F552747FD509514962D913C91BA
:1004F0001597632F661F6627661FED018D01055056
:100500001040662381F080915F038A871296ED91F7
:10051000FC9113978181882309F440C0482F552707
:1005200047FD50953DC0CA018097FC01EE0FFF1FAB
:10053000EE0FFF1FE80FF91FE20FF31FE15AFC4F08
:1005400080818A872150304037FD61E02197C017B4
:10055000D107B9F614968D919C9115970197159630
:100560009C938E9314978F5F9F4F7CF484E090E070
:1005700015969C938E93149712968D919C91139738
:10058000019613969C938E9312979D012A5F3F4F7D
:10059000C901DF91CF911F910F91089540E250E082
:1005A00060E024E030E0D2CFEF92FF920F931F93F0
:1005B000DF93CF93CDB7DEB72B970FB6F894DEBF9E
:1005C0000FBECDBF9A8389839C838B8384E090E0A8
:1005D0009E838D8300E010E07E010894E11CF11CF5
:1005E00009C0C7010E9467026EE170E00E943B02F1
:1005F0000F5F1F4FA981BA81FD0101900020E9F72B
:100600003197EA1BFB0BCF01880F991F8E0F9F1F9D
:10061000880F991F0817190720F32B960FB6F89427
:10062000DEBF0FBECDBFCF91DF911F910F91FF9025
:10063000EF9008951F920F920FB60F9211242F93EF
:100640003F938F939F93AF93BF938091C9079091EE
:10065000CA07A091CB07B091CC073091CD07019686
:10066000A11DB11D232F2D5F2D3720F02D57019691
:10067000A11DB11D2093CD078093C9079093CA0790
:10068000A093CB07B093CC078091C5079091C60784
:10069000A091C707B091C8070196A11DB11D809315
:1006A000C5079093C607A093C707B093C807BF912B
:1006B000AF919F918F913F912F910F900FBE0F900F
:1006C0001F901895019739F0880F991F880F991F6F
:1006D00002970197F1F70895789484B5826084BDFC
:1006E00084B5816084BD85B5826085BD85B5816036
:1006F00085BDEEE6F0E0808181608083E1E8F0E096
:100700001082808182608083808181608083E0E8C4
:10071000F0E0808181608083E1EBF0E080818460A3
:100720008083E0EBF0E0808181608083E1E9F0E0AC
:10073000808182608083808181608083E0E9F0E055
:10074000808181608083E1EAF0E080818260808343
:10075000808181608083E0EAF0E080818160808335
:10076000E1E2F1E08081826080838081816080832A
:10077000E0E2F1E0808181608083EAE7F0E080815F
:1007800084608083808182608083808181608083B7
:100790008081806880831092C1000895893009F4B7
:1007A0004FC08A30A0F4843081F1853040F482302B
:1007B000C9F1833030F5813009F06DC030C0873029
:1007C000A9F18830B8F5853009F065C022C08D30B8
:1007D00009F448C08E3028F48B30D1F18C30F0F51C
:1007E00033C0803109F448C0813120F48E3009F0E3
:1007F00052C03CC0813109F443C0823109F04BC082
:1008000045C0809180008F7707C0809180008F7DE8
:1008100003C080918000877F80938000089584B515
:100820008F7702C084B58F7D84BD08958091B0001C
:100830008F7703C08091B0008F7D8093B0000895C2
:10084000809190008F7707C0809190008F7D03C0CA
:1008500080919000877F8093900008958091A00000
:100860008F7707C08091A0008F7D03C08091A0008A
:10087000877F8093A0000895809120018F7703C027
:10088000809120018F7D8093200108958091200127
:10089000877F809320010895FF920F931F93F62E78
:1008A000482F50E0CA0186549E4FFC012491CA0192
:1008B0008C569E4FFC01149142595E4FFA010491EF
:1008C0000023C9F0222319F0822F0E94CE03E02FCB
:1008D000F0E0EE0FFF1FE65CFE4FA591B4919FB7CD
:1008E000F894FF2021F48C911095812302C08C9103
:1008F000812B8C939FBF1F910F91FF900895CF93F1
:10090000DF930E946C030E947F01C0E0D0E00E9450
:1009100032012097E1F30E940000F9CFEE0FFF1F94
:0C0920000590F491E02D0994F894FFCFAD
:10092C004772656574696E67732054484F54434F22
:10093C004E20307834204261646765204E6F6465C8
:10094C00200050726F78696D6974792056657269F0
:10095C006669636174696F6E20436F6D706C65744A
:10096C00653A2000436F6E67726174756C617469CF
:10097C006F6E73212054657472697320436F6D70B0
:10098C006C65746521212100476F6F64204D6F7277
:10099C006E696E67210049206E6565642061204296
:1009AC0065657200425552502042555250204255B6
:1009BC005250004C756E63682054696D652121217D
:1009CC00204E6F6D204E6F6D204E6F6D00466F7216
:1009DC006B204D7920446F6E676C6500506C6561BF
:1009EC00736520446F6E2274204861636B204D65E3
:1009FC000053544655004170706C6175736500442A
:100A0C00696E6E65722054696D65212121204E6FCF
:100A1C006D204E6F6D204E6F6D0053656520796FA4
:100A2C00752061742054484F54434F4E2030783514
:100A3C00004754464F0063376669766520776173CB
:100A4C0020686572652E000002220244026802765C
:100A5C000284029302AD02BC02D102D602DF02FA7A
:100A6C0002110316030E000F0010001100120013E8
:100A7C00002100230024002500040005000600FFCF
:100A8C00FFFFFFFFFFFF86FFFFFF8FFF8FFFEB8056
:100A9C00EB80EBDBD580D5EDDCECF79B9DFADDAA8A
:100AAC00B6C9FFFF9FAFFFFFBEDDE3FFFFE3DDBE77
:100ABC00FFF7D5E3D5F7F7F7C1F7F7FFFFF9FAFF23
:100ACC00F7F7F7F7F7FFFFF9F9FFDFEFF7FBFDC1DA
:100ADC00AEB6BAC1FFFE80DEFFCEB6BABCDEB996AA
:100AEC00AEBEBDFB80DBEBF3B1AEAEAE8DF9B6B6F0
:100AFC00D6E19FAFB7B8BFC9B6B6B6C9C3B5B6B61F
:100B0C00CFFFFFC9C9FFFFFFC9CAFFBEDDEBF7FF6F
:100B1C00EBEBEBEBEBFFF7EBDDBECFB7BABFDFC117
:100B2C00BEB0B6D9C0BBBBBBC0C9B6B6B680DDBE05
:100B3C00BEBEC1E3DDBEBE80BEB6B6B680BFBFB71B
:100B4C00B780D9BABEBEC180F7F7F780FFBE80BEB2
:100B5C00FFBF81BEFEFDBEDDEBF780FEFEFEFE801C
:100B6C0080DFEFDF8080FBF7EF80C1BEBEBEC1CF60
:100B7C00B7B7B780C2BDBABEC1CEB5B3B780B9B630
:100B8C00B6B6CEBFBF80BFBF81FEFEFE8183FDFE29
:100B9C00FD8380FDF3FD809CEBF7EB9C9FEFF0EF6A
:100BAC009F9EAEB6BABCBEBE80FFFFFDFBF7EFDF6B
:100BBC00FFFF80BEBEEFDFBFDFEFFEFEFEFEFEFFDF
:100BCC00EFDFBFFFF0EAEAEAFDF1EEEEF680FDEEB4
:100BDC00EEEEF180F6EEEEF1F3EAEAEAF1DFBFB702
:100BEC00C0F7E1EAEAEBF7F0EFEFF780FFFEA0EEDB
:100BFC00FFFFA1EEFEFDEEF5FB80FFFFFE80BEFFCA
:100C0C00F0EFF3EFE0F0EFEFF7E0F1EEEEEEF1F7EF
:100C1C00EBEBEBE0E0F3EBEBF7F7EFEFF7E0FDEAF4
:100C2C00EAEAF6FDFEEE81EFE0FDFEFEE1E3FDFEFD
:100C3C00FDE3E1FEF9FEE1EEF5FBF5EEE1FAFAFA81
:100C4C00E7EEE6EAECEEFFBEC9F7FFFFFF80FFFF21
:100C5C00FFF7C9BEFFF7FBF7F7FBF0EEDEEEF0DDBA
:100C6C00BEAAC1EB007B1B6BF0FFFFF9FAFFDFB7ED
:100C7C00C1F6FDFAFCFFFAFCFEFFFEFFFEFFDF8073
:100C8C00DFFFFFDD80DDFFFFDFBFDFFFBCDCEF340C
:100C9C003CD936B636CDFFFFEBF7FFB6C1BEBEC1B1
:100CAC00F9F6F680BF9E2EB63ABCC1B6AEB6DDE6FE
:100CBC00F9F6EEF1FFEFDFBFFFFFBFDFEFFFEFDF76
:100CCC00AFDFBFBFDFAFDFEFFFE3E3E3FFF7F7F724
:100CDC00F7FFF7F7F7F7F7BFDFBF7FBF7575552540
:100CEC0070FD6AAA6AF6FFFBF5EEFFF2EAF1EEF18F
:100CFC00E3C1E0C1E3EE66AA6CEEC77BFC7BC7FFE9
:100D0C00FFFFFFFFFFFFB0FFFFFBDD80DDE3FDBE5C
:100D1C00B6C1F6DDE3EBE3DDABCBE0CBABFFFF889D
:100D2C00FFFFDFB5AAD6FDFFBFFFBFFF80B6A2BE97
:100D3C0080C2AAAAAAF6EEF5EAF5FBF8FBFBFBFBD0
:100D4C00FBFBFBFBFB80BAACBE80BFBFBFBFBFFFD2
:100D5C008F77778FEEEE82EEEEFFB75767B7FFAF68
:100D6C00575777FFBFDFEFFF83F7FBFB808080B720
:100D7C00B7CFFFFFF3F3FFFFFDF2FEFFFFFF0FBF47
:100D8C00FFFFBF5FBFFFF7EBD5EBDDA0D5E907BBDE
:100D9C00F2ECF607BFE0F5F90757FDFEAEF6F9F0F9
:100DAC00EB9B6BF0F06B9BEBF0F0AB6BABF070ABC9
:100DBC006B6BB0F06BDB6BF0F0AB4BABF0B6B680A3
:100DCC00DBE0B7787A7B87EEEAAA6AE0EE6AAAEAF9
:100DDC00E0EEAA6AAAE0EEAAEAAAE0FFEEA06EFF95
:100DEC00FF6EA0EEFFFFAE60AEFFFFAEE0AEFFC148
:100DFC00BEB680F760BD7B77A0E1DE9E5EE1E15E72
:100E0C009EDEE1F1AE6EAEF171AE6E6EB1E15EDE04
:100E1C005EE1DDEBF7EBDDF7AA80AAF7C1FEBE7E43
:100E2C00C1C17EBEFEC1E1BE7EBEE1C17EFE7EC101
:100E3C00DF6FB0EFDFE7DBDB007EC9B6B6C1FEF0DB
:100E4C00EAAA6AFDF06AAAEAFDF0AA6AAAFD70AAEB
:100E5C006A6ABDF0AAEAAAFDF0AA4AAAFDE5D6E1A3
:100E6C00D6D9F7D8DADBE7F3EAAA6AF1F36AAAEA89
:100E7C00F1F3AA6AAAF1F3AAEAAAF1FFFEA076FF9F
:100E8C00FF7EA0F6FFFFBE60B6FFFFBEE0B6FFF927
:100E9C00F2AADAAD70AF6F77A0F1EEAE6EF1F16E33
:100EAC00AEEEF1F9D6B6D6F9B9D6B6B6D9F1AEEEF4
:100EBC00AEF1F7F7D5F7F7F7ABC1EAF7E0FDBE7E79
:100ECC00E1E07DBEFEE1E0BD7EBEE1E0BDFEBEE147
:100EDC00E1BADAFAE7F7EA80BEFFE1BAFABAE7005C
:00000001FF
