:100000000C94FC000C9426010C9426010C942601FF
:100010000C9426010C9426010C9426010C942601C4
:100020000C9426010C9426010C9426010C942601B4
:100030000C9426010C9426010C9426010C942601A4
:100040000C9426010C9426010C9426010C94260194
:100050000C9426010C9426010C9426010C949C050A
:100060000C9426010C9426010C9426010C94260174
:100070000C9426010C9426010C9426010C94260164
:100080000C9426010C9426010C9426010C94260154
:100090000C9426010C9426010C9426010C94260144
:1000A0000C9426010C9426010C9426010C94260134
:1000B0000C9426010C9426010C9426010C94260124
:1000C0000C9426010C9426010C9426010C94260114
:1000D0000C9426010C9426010C9426010C94260104
:1000E0000C9426010C9426010C9426010C945302C6
:1000F0000C94AB020C9426010C9426010C944E0334
:100100000C9426010C9426010C9426010C942601D3
:100110000C9426010C9426010C9426010C942601C3
:100120000F0F0F0F0F0E0E0E0D0D0C0C0B0A090802
:10013000070604020000000000240000002A002D31
:10014000003000330000000000000000000000004C
:10015000000000250000002B002E003100340000BC
:100160000000000000000000000000000000002669
:100170000029002C002F00320000000000000000C9
:10018000000000040405050505050502020202023F
:100190000206060606060602040404040402070416
:1001A000070707070607060505040840200408108E
:1001B000801080402008020102040810200401027F
:1001C000204080012010081002044001800102003C
:1001D00000000B00090A00070504030000000000EE
:1001E000000000000000000000000200000000000D
:1001F000000000000000970511241FBECFEFD1E4DE
:10020000DEBFCDBF12E0A0E0B2E0E6ECFEE000E031
:100210000BBF02C007900D92AC35B107D9F713E0C0
:10022000ACE5B2E001C01D92AF3FB107E1F711E0CC
:10023000C8EFD1E004C02297FE010E945407C63FD8
:10024000D107C9F70E9443070C9461070C94000082
:100250008BE061E00E94100768EE73E080E090E0C0
:100260000E940A068BE060E00E9410070895CF927A
:10027000DF92EF92FF920F931F93CF93DF937B0157
:10028000C0E0D2E007E010E0C82EDD24B601002E69
:1002900002C0759567950A94E2F7617088810E94A3
:1002A000100722960150104082E0C031D80771F744
:1002B000EE0CFF1CE0E1F2E0EE0EFF1EF701808184
:1002C00061E00E941007DF91CF911F910F91FF9085
:1002D000EF90DF90CF900895FC01EE0FFF1FE05FDD
:1002E000FD4F808160E00E941007089580E060E08B
:1002F00070E00E94370164E670E080E090E00E94C8
:100300000A0680E090E00E946C010895CF93DF938D
:10031000C0E0D0E080E0BE010E9437016AE070E0FA
:1003200080E090E00E940A06CE010E946C012196B6
:10033000C530D10579F7DF91CF910895CF93DF9341
:10034000C0E0D0E0CE010E946C012196C530D105FD
:10035000C9F7DF91CF910895EF92FF920F931F930A
:10036000CF93DF937C018B010FC0C0E0D0E00E94EF
:100370009E01F701EC0FFD1F8081BE010E94370135
:100380002196C530D10599F70150104071F7DF91E2
:10039000CF911F910F91FF90EF9008950F931F93AE
:1003A0008AE192E064E670E00E94AC0184E292E0AF
:1003B00064E670E00E94AC018FE192E064E670E0D8
:1003C0000E94AC010E94860189E292E064E670E03E
:1003D0000E94AC018EE292E064E670E00E94AC0103
:1003E00083E392E064E670E00E94AC0188E392E06F
:1003F00064E670E00E94AC018DE392E064E670E098
:100400000E94AC0182E492E064E670E00E94AC01DC
:1004100087E492E064E670E00E94AC018CE492E034
:1004200064E670E00E94AC0181E592E064E670E071
:100430000E94AC0106E512E0C80164E670E00E948B
:10044000AC01C80164E670E00E94AC01C80164E63A
:1004500070E00E94AC01C80164E670E00E94AC014B
:100460000E9486011F910F9108950F931F9304EF2F
:1004700013E0C8016BE00E948105C80168E271E0E9
:100480000E94C504C80166E771E00E94CA048DB1EC
:100490008F618DB98FEF80BB0E949E010E94860103
:1004A0001F910F9108951F920F920FB60F920BB6E6
:1004B0000F9211242F933F934F935F936F937F93EA
:1004C0008F939F93AF93BF93EF93FF935E9A86E0D2
:1004D0000E945D048093FE03FF91EF91BF91AF9165
:1004E0009F918F917F916F915F914F913F912F914C
:1004F0000F900BBE0F900FBE0F901F9018951F937B
:10050000DF93CF930F92CDB7DEB786E060E847E088
:100510000E946304182F80916102909162026091A1
:100520006302AE014F5F5F4F0E9482048F7760913C
:1005300061027091620220E0112309F421E04981F7
:100540000E94A90490936202809361020F90CF9160
:10055000DF911F9108951F920F920FB60F920BB665
:100560000F9211242F933F934F935F936F937F9339
:100570008F939F93AF93BF93EF93FF935E980E94E7
:100580007F02FF91EF91BF91AF919F918F917F91EA
:100590006F915F914F913F912F910F900BBE0F90F4
:1005A0000FBE0F901F901895CF92DF92FF920F937E
:1005B0001F93DF93CF9300D00F92CDB7DEB7F82E05
:1005C00082E0F81689F08F1530F0FF20F1F081E01D
:1005D000F816C1F40BC084E0F81651F0F81650F08C
:1005E00085E0F81679F408C086E010C089E00EC0F6
:1005F00086E10CC089E10AC088E08A8383E08983B0
:1006000011E007C084E00E94A10488E08A83898306
:1006100010E080915F02853059F41123A1F580919B
:1006200039018D7F8093390180ED97E00197F1F7D3
:10063000298182E06FE140E00E9470040CE830E81C
:10064000C32ED12C81E06FE140E00E9463048B83D4
:100650009A818B81981739F0C6010197F1F7002331
:1006600011F00150EFCF9A818B81981719F081E03A
:100670000E94A104112329F08091390182608093A6
:100680003901F0925F020F900F900F90CF91DF91A0
:100690001F910F91FF90DF90CF9008951F920F92BE
:1006A0000FB60F920BB60F9211242F933F934F93D7
:1006B0005F936F937F938F939F93AF93BF93EF93CA
:1006C000FF935D9880915F02813019F480E090E0A3
:1006D00016C08330D1F482E060EE45E00E946304EE
:1006E000833029F0833028F0853039F404C081E06C
:1006F00005C080E003C082E001C083E090E00E947A
:10070000B304809160020E94D402FF91EF91BF91E7
:10071000AF919F918F917F916F915F914F913F9199
:100720002F910F900BBE0F900FBE0F901F9018953A
:100730000F931F93CF93DF93162F072F8430C9F1A8
:10074000853058F4813009F466C0813090F08230F1
:10075000F1F0833009F05CC037C0863009F43FC047
:100760008630C0F1873009F442C0883009F050C0AB
:100770004BC0862F8B50803108F04AC088E06FE173
:1007800040E0212F0E94700410935C0244C0E62FC9
:10079000EF5EE53108F03CC060935D02F0E0E05EA2
:1007A000FE4FE081F0E0E49185E06FE040E02E2F25
:1007B00008C0643068F560935E0288E060E645E05A
:1007C000212F0E94700427C060936002862F0E9430
:1007D000D40221C082E20E94570483E204C080E276
:1007E0000E94570481E2602F0E94570414C0862F94
:1007F000972F9C01E90114E2812F69910E9457040F
:100800001F5F1C32C9F707C0862F0E94530403C024
:1008100082E00E94A104DF91CF911F910F91089572
:100820009093620280936102609363028091390128
:100830008E7F80933901809139018D7F80933901BA
:1008400088E190E00197F1F7809139018160809310
:1008500039018EE060E00E9457048FE00E945D0441
:1008600082E06FE140E028E00E94700488EF97E0AA
:100870000197F1F781E06FE140E00E946304883066
:1008800019F081E00E94A10484E060E245E021E0EB
:100890000E9470048EE06CE40E94570410925F0284
:1008A000109260020895833309F08FEF0895E82FC6
:1008B000F0E0E05CFE4F60830895E82FF0E0E05C3C
:1008C000FE4F80810895E82FF0E0E05CFE4F8081CC
:1008D000862390E002C0959587954A95E2F70895A2
:1008E000E82FF0E0E05CFE4F30E002C0220F331F43
:1008F0004A95E2F7962F9223609580818623982B64
:1009000090830895FF920F931F93CF93DF93EA0193
:10091000F0907B01F61608F46F2D062F10E060E8CA
:1009200071E0402F50E00E94580700581E4FF80118
:10093000808188838F2DDF91CF911F910F91FF9040
:100940000895E0916402F0916502309709F00995ED
:100950000895E0916802F0916902309711F00995CD
:10096000BC01CB010895E0916A02F0916B023097CF
:1009700009F009950895909369028093680208959B
:1009800090936B0280936A0208957093650260935E
:10099000640208957093F3036093F2031092EE03E0
:1009A000672B19F081E08093EE030895CF93DF93D6
:1009B000582F4093EC038091ED03882309F044C045
:1009C00080916C03583030F4C82FD0E0462FCB0113
:1009D000DC0135C0C82FD0E097E0252F30E0225051
:1009E000304015C080916B03E82FF0E03196AF01E5
:1009F0004F77507031974C175D0771F1E551FD4FFE
:100A0000A60FB71F8C91808340936B039F5FA92F24
:100A1000B0E0A217B30734F31FC080916B03E82F37
:100A2000F0E031969F012F77307031972C173D07FA
:100A300099F0E551FD4F8D91808320936B038A2FB0
:100A4000841B851750F308C0E091F003F091F10387
:100A5000852F09959C0102C02BEE32E0C901DF9180
:100A6000CF9108959C018091EE03882331F0E091AD
:100A7000F203F091F303C90109951092EF03089571
:100A80001F93CF93DF93162FEA018CE692E06FE776
:100A90000E941004209781F020E030E0F901E35932
:100AA000FC4FDE01A20FB31F8C9180832F5F3F4F5D
:100AB0002730310599F714C081E080936D0380E8F9
:100AC00080936E0310926F0381E18093700382E242
:100AD0008093710383E38093720384E480937303B0
:100AE00080E090E0612F70E00E94980382E00E9415
:100AF000D402569A559A5E985D98DF91CF911F91D6
:100B0000089540E050E00E9440050895109265026B
:100B100010926402109267021092660286ED94E0D1
:100B20000E94BB0482E395E00E94C004089584EF14
:100B300093E00E94860508951F920F920FB60F92C0
:100B400011242F933F938F939F93AF93BF938091E3
:100B5000F9039091FA03A091FB03B091FC0330914B
:100B6000FD030196A11DB11D232F2D5F2D3720F010
:100B70002D570196A11DB11D2093FD038093F9030C
:100B80009093FA03A093FB03B093FC038091F503C9
:100B90009091F603A091F703B091F8030196A11D7F
:100BA000B11D8093F5039093F603A093F703B093E0
:100BB000F803BF91AF919F918F913F912F910F902B
:100BC0000FBE0F901F9018959FB7F8942091F503D2
:100BD0003091F6034091F7035091F80386B5A89B36
:100BE00006C08F3F21F02F5F3F4F4F4F5F4F9FBF9A
:100BF000542F432F322F2227280F311D411D511D05
:100C000082E0220F331F441F551F8A95D1F7B90187
:100C1000CA010895EF92FF920F931F93CF93DF9332
:100C20007B018C010E94E405EB010EC00E94E405EB
:100C30006C1B7D0B685E7340C8F30894E108F108F3
:100C400001091109C851DC4FE114F1040105110536
:100C500069F7DF91CF911F910F91FF90EF90089569
:100C6000789484B5826084BD84B5816084BD85B587
:100C7000826085BD85B5816085BDEEE6F0E080814E
:100C800081608083E1E8F0E010828081826080836F
:100C9000808181608083E0E8F0E0808181608083F2
:100CA000E1EBF0E0808184608083E0EBF0E0808124
:100CB00081608083E1E9F0E08081826080838081CF
:100CC00081608083E0E9F0E0808181608083E1EAF7
:100CD000F0E0808182608083808181608083E0EAAF
:100CE000F0E0808181608083E1E2F1E080818260D8
:100CF0008083808181608083E0E2F1E08081816097
:100D00008083EAE7F0E08081846080838081826074
:100D1000808380818160808380818068808310925D
:100D2000C1000895893009F44FC08A30A0F484309E
:100D300081F1853040F48230C9F1833030F5813063
:100D400009F06DC030C08730A9F18830B8F5853022
:100D500009F065C022C08D3009F448C08E3028F4F7
:100D60008B30D1F18C30F0F533C0803109F448C0BC
:100D7000813120F48E3009F052C03CC0813109F439
:100D800043C0823109F04BC045C0809180008F770D
:100D900007C0809180008F7D03C080918000877F95
:100DA00080938000089584B58F7702C084B58F7DCD
:100DB00084BD08958091B0008F7703C08091B0000A
:100DC0008F7D8093B0000895809190008F7707C049
:100DD000809190008F7D03C080919000877F8093E9
:100DE000900008958091A0008F7707C08091A000A7
:100DF0008F7D03C08091A000877F8093A00008951D
:100E0000809120018F7703C0809120018F7D809396
:100E10002001089580912001877F8093200108950B
:100E2000FF920F931F93F62E482F50E0CA01815373
:100E30009E4FFC012491CA0187559E4FFC011491DD
:100E40004D575E4FFA0104910023C9F0222319F097
:100E5000822F0E949206E02FF0E0EE0FFF1FE15B71
:100E6000FE4FA591B4919FB7F894FF2021F48C9187
:100E70001095812302C08C91812B8C939FBF1F9171
:100E80000F91FF900895CF93DF930E9430060E9448
:100E90003502C0E0D0E00E94CE012097E1F30E942D
:100EA0000000F9CFEE0FFF1F0590F491E02D09949B
:100EB000FB01DC0102C001900D9241505040D8F777
:060EC0000895F894FFCF35
:100EC6000E000F0010001100120013002100230075
:100ED60024002500040005000600006E6E6E91FDDC
:100EE600FDFDFDFDC003C003C0FFFF7FFFFFFFFF49
:100EF6003F7FFFFFFF1FBFFFFFFF8FDFFFFFDF9F6C
:100F0600DFFFFFEFCFEFFFFFF7E7F7FFFFFBF3FB97
:0C0F1600FFFFFDF9FDFFFFFEFCFEFF00E9
:00000001FF
