:100000000C94F1000C941B010C941B010C941B012B
:100010000C941B010C941B010C941B010C941B01F0
:100020000C941B010C941B010C941B010C941B01E0
:100030000C941B010C941B010C941B010C941B01D0
:100040000C941B010C941B010C941B010C941B01C0
:100050000C941B010C941B010C941B010C942C069A
:100060000C941B010C941B010C941B010C941B01A0
:100070000C941B010C941B010C941B010C941B0190
:100080000C941B010C941B010C941B010C941B0180
:100090000C941B010C941B010C941B010C941B0170
:1000A0000C941B010C941B010C941B010C941B0160
:1000B0000C941B010C941B010C941B010C941B0150
:1000C0000C941B010C941B010C941B010C941B0140
:1000D0000C941B010C941B010C941B010C941B0130
:1000E0000C941B010C941B010C941B010C94E90152
:1000F0000C944C020C941B010C941B010C94EF0209
:100100000C941B010C941B010C941B010C941B01FF
:100110000C941B010C941B010C941B010C941B01EF
:1001200000000000240000002A002D0030003300F1
:10013000000000000000000000000000000025009A
:1001400000002B002E0031003400000000000000F1
:1001500000000000000000000000260029002C0024
:100160002F00320000000000000000000000040426
:10017000050505050505020202020202060606063D
:10018000060602040404040402070407070707061E
:100190000706050504084020040810801080402050
:1001A00008020102040810200401022040800120FE
:1001B000100810020440018001020000000B000939
:1001C0000A00070504030000000000000000000012
:1001D000000000000002000000000000000000001D
:1001E000270611241FBECFEFD1E4DEBFCDBF12E042
:1001F000A0E0B2E0EEEFF0E100E00BBF02C007903C
:100200000D92A632B107D9F713E0A6E2B2E001C021
:100210001D92AB3CB107E1F711E0C2EED1E004C0A2
:100220002297FE010E944A08C03ED107C9F70E94EA
:1002300012080C947D080C940000EF92FF920F932B
:100240001F937C0100EC13E0C8010E940305C80164
:10025000B7010E94BD0560ED77E080E090E00E946C
:100260009A06C8010E9418051F910F91FF90EF9008
:1002700008958AE061E00E94DF0768EE73E080E0A5
:1002800090E00E949A068AE060E00E94DF070895ED
:100290008BE061E00E94DF0768EE73E080E090E0B1
:1002A0000E949A068BE060E00E94DF0708951F938A
:1002B00080E092E00E941D0182E092E00E941D0118
:1002C00084E092E00E941D0186E092E00E941D0100
:1002D00088E092E00E941D0182E092E00E941D01F0
:1002E00086E092E00E941D018AE092E00E941D01DA
:1002F0008CE092E00E941D018CE092E00E941D01C2
:100300008EE092E00E941D018AE092E00E941D01B1
:1003100088E092E00E941D018EE092E00E941D01A3
:1003200084E092E00E941D0188E092E00E941D019D
:1003300080E092E00E941D0180EC93E00E94F504B1
:100340008823A9F41AC080EC93E00E94DE040E9486
:100350004E08182F61E00E94DF0768EE73E080E02E
:1003600090E00E949A06812F60E00E94DF0780ECF7
:1003700093E00E94F504882331F760E177E280E0A2
:1003800090E00E949A061F9108951F9380EC93E0DD
:100390006BE00E94110680EC93E068E471E00E943B
:1003A000710480EC93E069E371E00E94760410E050
:1003B000812F61E00E9422071F5F1930C9F78AE090
:1003C00061E00E9422078BE061E00E9422071F91FA
:1003D00008951F920F920FB60F920BB60F92112431
:1003E0002F933F934F935F936F937F938F939F933D
:1003F000AF93BF93EF93FF935E9A86E00E94FE0354
:100400008093CA03FF91EF91BF91AF919F918F911C
:100410007F916F915F914F913F912F910F900BBE04
:100420000F900FBE0F901F9018950E944204E9E3B1
:10043000F1E080818260808380818D7F8083089558
:100440001F93DF93CF930F92CDB7DEB786E060E8BE
:1004500047E00E940404182F80912B0290912C02F7
:1004600060912D02AE014F5F5F4F0E9423048F7792
:1004700060912B0270912C0220E0112309F421E0FD
:1004800049810E94550490932C0280932B020F9077
:10049000CF91DF911F9108951F920F920FB60F9287
:1004A0000BB60F9211242F933F934F935F936F934B
:1004B0007F938F939F93AF93BF93EF93FF935E9838
:1004C0000E942002FF91EF91BF91AF919F918F9178
:1004D0007F916F915F914F913F912F910F900BBE44
:1004E0000F900FBE0F901F901895CF92DF92FF9242
:1004F0000F931F93DF93CF9300D00F92CDB7DEB74A
:10050000F82E82E0F81689F08F1530F0FF20F1F018
:1005100081E0F816C1F40BC084E0F81651F0F8162B
:1005200050F085E0F81679F408C086E010C089E044
:100530000EC086E10CC089E10AC088E08A8383E0AE
:10054000898311E007C084E00E944D0488E08A831B
:10055000898310E080912902853059F41123A1F597
:10056000809139018D7F8093390180ED97E001976B
:10057000F1F7298182E06FE140E00E9411040CE86C
:1005800030E8C32ED12C81E06FE140E00E940404EA
:100590008B839A818B81981739F0C6010197F1F707
:1005A000002311F00150EFCF9A818B81981719F039
:1005B00081E00E944D04112329F08091390182606D
:1005C00080933901F09229020F900F900F90CF91F4
:1005D000DF911F910F91FF90DF90CF9008951F92B0
:1005E0000F920FB60F920BB60F9211242F933F93D9
:1005F0004F935F936F937F938F939F93AF93BF932B
:10060000EF93FF935D9880912902813019F480E087
:1006100090E016C08330D1F482E060EE45E00E94A5
:100620000404833029F0833028F0853039F404C085
:1006300081E005C080E003C082E001C083E090E07B
:100640000E945F0480912A020E947502FF91EF913F
:10065000BF91AF919F918F917F916F915F914F91DA
:100660003F912F910F900BBE0F900FBE0F901F90D8
:1006700018950F931F93CF93DF93162F072F843076
:10068000C9F1853058F4813009F466C0813090F0AA
:100690008230F1F0833009F05CC037C0863009F455
:1006A0003FC08630C0F1873009F442C0883009F07D
:1006B00050C04BC0862F8B50803108F04AC088E074
:1006C0006FE140E0212F0E9411041093260244C0E4
:1006D000E62FEF5EE53108F03CC060932702F0E0C2
:1006E000E05FFD4FE081F0E0E49185E06FE040E005
:1006F0002E2F08C0643068F56093280288E060E619
:1007000045E0212F0E94110427C060932A02862F02
:100710000E94750221C082E20E94F80383E204C0B5
:1007200080E20E94F80381E2602F0E94F80314C067
:10073000862F972F9C01E90114E2812F69910E9475
:10074000F8031F5F1C32C9F707C0862F0E94F4030D
:1007500003C082E00E944D04DF91CF911F910F9161
:10076000089590932C0280932B0260932D02809128
:1007700039018E7F80933901809139018D7F80937B
:10078000390188E190E00197F1F7809139018160AA
:10079000809339018EE060E00E94F8038FE00E94B0
:1007A000FE0382E06FE140E028E00E94110488EF40
:1007B00097E00197F1F781E06FE140E00E940404C7
:1007C000883019F081E00E944D0484E060E245E049
:1007D00021E00E9411048EE06CE40E94F803109264
:1007E000290210922A020895833309F08FEF0895A9
:1007F000E82FF0E0E05CFE4F60830895E82FF0E022
:10080000E05CFE4F80810895E82FF0E0E05CFE4F51
:100810008081862390E002C0959587954A95E2F7FE
:100820000895E82FF0E0E05CFE4F30E002C0220FB8
:10083000331F4A95E2F7962F922360958081862395
:10084000982B90830895FF920F931F93CF93DF937C
:10085000EA01F0907B01F61608F46F2D062F10E0E8
:1008600060E871E0402F50E00E946C0800581E4F75
:10087000F801808188838F2DDF91CF911F910F9197
:10088000FF900895482F87FD4FE74093800181E84E
:1008900091E050E00E946C080895E0912E02F091E2
:1008A0002F02309709F009950895E0913202F091F6
:1008B0003302309711F00995BC01CB010895E09106
:1008C0003402F0913502309709F00995089590931C
:1008D000330280933202089590933502809334025C
:1008E000089570932F0260932E0208957093BF03B2
:1008F0006093BE031092B903672B19F081E08093D7
:10090000B9030895CF93DF93582F4093B703809195
:10091000B803882309F044C080913603583030F47E
:10092000C82FD0E0462FCB01DC0135C0C82FD0E066
:1009300097E0252F30E02250304015C080913503DC
:10094000E82FF0E03196AF014F77507031974C1798
:100950005D0771F1EB54FD4FA60FB71F8C9180839B
:10096000409335039F5FA92FB0E0A217B30734F37C
:100970001FC080913503E82FF0E031969F012F775B
:10098000307031972C173D0799F0EB54FD4F8D9146
:100990008083209335038A2F841B851750F308C06A
:1009A000E091BC03F091BD03852F09959C0102C025
:1009B00025EB32E0C901DF91CF9108959091360384
:1009C00080913503891719F42FEF3FEF0CC0892F61
:1009D00090E0FC01EB54FD4F208101968F779070E1
:1009E0008093360330E0C90108958091350390E08B
:1009F00080589F4F20913603821B910960E870E078
:100A00000E942108089581E08093BA0387E08093D3
:100A1000B60308959C018091B903882331F0E091D9
:100A2000BE03F091BF03C90109951092BB0308955D
:100A3000DF93CF9300D0CDB7DEB71092BA03809189
:100A4000B6038E5F8093B6038FEF9FEF9A838983FF
:100A50008091BB038823A1F089819A8101979A83B1
:100A60008983019669F0F4CF8091BB038823D1F08C
:100A700089819A8101979A838983019699F0F4CFAD
:100A800081E08093BB030E9475025D9A8091B6035A
:100A900067E373E040E00E9415028FEF9FEF9A83B7
:100AA0008983E2CF82E00E9475021092BB030F900F
:100AB0000F90CF91DF910895DF93CF9300D0CDB702
:100AC000DEB79C018091BA038823D1F08091B603F0
:100AD0008D3708F04DC0E82FF0E0E95CFC4F6083F3
:100AE0008F5F8093B6038D3709F042C0C9010E9421
:100AF000180581E08093BA0387E08093B60338C07D
:100B000060933E0310923F03109240038FEF9FEFDC
:100B10009A8389838091BB038823A1F089819A817C
:100B200001979A838983019669F0F4CF8091BB0382
:100B30008823C9F089819A8101979A8389830196D4
:100B400091F0F4CF81E08093BB030E9475025D9A1F
:100B50008AE067E373E040E00E9415028FEF9FEFA9
:100B60009A838983E3CF82E00E9475021092BB03CF
:100B70000F900F90CF91DF9108950F931F93CF9314
:100B8000DF938C01EB0104C02196C8010E945C0533
:100B900068816623C9F7DF91CF911F910F91089566
:100BA0001F93CF93DF93162FEA0186E392E06FE75E
:100BB0000E94B103209781F020E030E0F901E95C68
:100BC000FC4FDE01A20FB31F8C9180832F5F3F4F3C
:100BD0002730310599F714C081E08093370380E80E
:100BE000809338031092390381E180933A0382E2C3
:100BF00080933B0383E380933C0384E480933D0331
:100C000080E090E0612F70E00E94390382E00E9452
:100C10007502569A559A5E985D98DF91CF911F9113
:100C2000089540E050E00E94D005089510922F02F0
:100C300010922E02109231021092300282E894E05B
:100C40000E9467048AE095E00E946C04089580EC9D
:100C500093E00E94160608951F920F920FB60F920E
:100C600011242F933F938F939F93AF93BF938091C2
:100C7000C5039091C603A091C703B091C8033091FA
:100C8000C9030196A11DB11D232F2D5F2D3720F023
:100C90002D570196A11DB11D2093C9038093C50353
:100CA0009093C603A093C703B093C8038091C10378
:100CB0009091C203A091C303B091C4030196A11DFA
:100CC000B11D8093C1039093C203A093C303B0935B
:100CD000C403BF91AF919F918F913F912F910F903E
:100CE0000FBE0F901F9018959FB7F8942091C103E5
:100CF0003091C2034091C3035091C40386B5A89BB1
:100D000006C08F3F21F02F5F3F4F4F4F5F4F9FBF78
:100D1000542F432F322F2227280F311D411D511DE3
:100D200082E0220F331F441F551F8A95D1F7B90166
:100D3000CA010895EF92FF920F931F93CF93DF9311
:100D40007B018C010E947406EB010EC00E947406A8
:100D50006C1B7D0B685E7340C8F30894E108F108D2
:100D600001091109C851DC4FE114F1040105110515
:100D700069F7DF91CF911F910F91FF90EF90089548
:100D8000789484B5826084BD84B5816084BD85B566
:100D9000826085BD85B5816085BDEEE6F0E080812D
:100DA00081608083E1E8F0E010828081826080834E
:100DB000808181608083E0E8F0E0808181608083D1
:100DC000E1EBF0E0808184608083E0EBF0E0808103
:100DD00081608083E1E9F0E08081826080838081AE
:100DE00081608083E0E9F0E0808181608083E1EAD6
:100DF000F0E0808182608083808181608083E0EA8E
:100E0000F0E0808181608083E1E2F1E080818260B6
:100E10008083808181608083E0E2F1E08081816075
:100E20008083EAE7F0E08081846080838081826053
:100E3000808380818160808380818068808310923C
:100E4000C1000895CF93DF93482F50E0CA018C561C
:100E50009E4FFC01349142595E4FFA0184918823E0
:100E600069F190E0880F991FFC01E05EFE4FA591AB
:100E7000B491FC01E65CFE4FC591D491662351F418
:100E80002FB7F8948C91932F909589238C93888118
:100E900089230BC0623061F42FB7F8948C91932FA3
:100EA000909589238C938881832B88832FBF06C0DC
:100EB0009FB7F8948C91832B8C939FBFDF91CF9138
:100EC0000895893009F44FC08A30A0F4843081F14C
:100ED000853040F48230C9F1833030F5813009F03B
:100EE0006DC030C08730A9F18830B8F5853009F081
:100EF00065C022C08D3009F448C08E3028F48B3094
:100F0000D1F18C30F0F533C0803109F448C0813123
:100F100020F48E3009F052C03CC0813109F443C046
:100F2000823109F04BC045C0809180008F7707C0A7
:100F3000809180008F7D03C080918000877F8093A7
:100F40008000089584B58F7702C084B58F7D84BDFD
:100F500008958091B0008F7703C08091B0008F7D9D
:100F60008093B0000895809190008F7707C08091A2
:100F700090008F7D03C080919000877F80939000C8
:100F800008958091A0008F7707C08091A0008F7D89
:100F900003C08091A000877F8093A0000895809176
:100FA00020018F7703C0809120018F7D80932001E5
:100FB000089580912001877F809320010895FF92FA
:100FC0000F931F93F62E482F50E0CA0186549E4F70
:100FD000FC012491CA018C569E4FFC011491425988
:100FE0005E4FFA0104910023C9F0222319F0822FE9
:100FF0000E946107E02FF0E0EE0FFF1FE65CFE4F5E
:10100000A591B4919FB7F894FF2021F48C9110958D
:10101000812302C08C91812B8C939FBF1F910F91D4
:10102000FF900895CF93DF930E94C0060E94C501F0
:10103000C0E0D0E00E9457012097E1F30E94000039
:10104000F9CF97FB092E07260AD077FD04D00CD0E4
:1010500006D000201AF4709561957F4F0895F6F739
:10106000909581959F4F0895AA1BBB1B51E107C026
:10107000AA1FBB1FA617B70710F0A61BB70B881F28
:10108000991F5A95A9F780959095BC01CD010895B7
:10109000EE0FFF1F0590F491E02D0994FC018827C5
:1010A0009927E89421912032E9F3293010F02E306D
:1010B000C8F32B3241F02D3239F4689404C00E94F9
:1010C0007508820F911D219120532A30C0F31EF420
:1010D000909581959F4F0895FB01DC0102C001901E
:1010E0000D9241505040D8F708957AE0979F902D87
:0E10F000879F802D910D11240895F894FFCF55
:1010FE00310032003300340035003600380037003E
:10110E000F0F0F0F0F0E0E0E0D0D0C0C0B0A090804
:06111E00070604020000B8
:00000001FF
